{
    "abi": [
        {
            "type": "constructor",
            "inputs": [
                {
                    "name": "_owner",
                    "type": "address",
                    "internalType": "address"
                }
            ],
            "stateMutability": "nonpayable"
        },
        {
            "type": "function",
            "name": "getCurrentSnapshot",
            "inputs": [],
            "outputs": [
                {
                    "name": "",
                    "type": "tuple",
                    "internalType": "struct DataStructures.RegistrySnapshot",
                    "components": [
                        {
                            "name": "rollup",
                            "type": "address",
                            "internalType": "address"
                        },
                        {
                            "name": "blockNumber",
                            "type": "uint256",
                            "internalType": "uint256"
                        }
                    ]
                }
            ],
            "stateMutability": "view"
        },
        {
            "type": "function",
            "name": "getGovernance",
            "inputs": [],
            "outputs": [
                {
                    "name": "",
                    "type": "address",
                    "internalType": "address"
                }
            ],
            "stateMutability": "view"
        },
        {
            "type": "function",
            "name": "getRollup",
            "inputs": [],
            "outputs": [
                {
                    "name": "",
                    "type": "address",
                    "internalType": "address"
                }
            ],
            "stateMutability": "view"
        },
        {
            "type": "function",
            "name": "getSnapshot",
            "inputs": [
                {
                    "name": "_version",
                    "type": "uint256",
                    "internalType": "uint256"
                }
            ],
            "outputs": [
                {
                    "name": "",
                    "type": "tuple",
                    "internalType": "struct DataStructures.RegistrySnapshot",
                    "components": [
                        {
                            "name": "rollup",
                            "type": "address",
                            "internalType": "address"
                        },
                        {
                            "name": "blockNumber",
                            "type": "uint256",
                            "internalType": "uint256"
                        }
                    ]
                }
            ],
            "stateMutability": "view"
        },
        {
            "type": "function",
            "name": "getVersionFor",
            "inputs": [
                {
                    "name": "_rollup",
                    "type": "address",
                    "internalType": "address"
                }
            ],
            "outputs": [
                {
                    "name": "",
                    "type": "uint256",
                    "internalType": "uint256"
                }
            ],
            "stateMutability": "view"
        },
        {
            "type": "function",
            "name": "isRollupRegistered",
            "inputs": [
                {
                    "name": "_rollup",
                    "type": "address",
                    "internalType": "address"
                }
            ],
            "outputs": [
                {
                    "name": "",
                    "type": "bool",
                    "internalType": "bool"
                }
            ],
            "stateMutability": "view"
        },
        {
            "type": "function",
            "name": "numberOfVersions",
            "inputs": [],
            "outputs": [
                {
                    "name": "",
                    "type": "uint256",
                    "internalType": "uint256"
                }
            ],
            "stateMutability": "view"
        },
        {
            "type": "function",
            "name": "owner",
            "inputs": [],
            "outputs": [
                {
                    "name": "",
                    "type": "address",
                    "internalType": "address"
                }
            ],
            "stateMutability": "view"
        },
        {
            "type": "function",
            "name": "renounceOwnership",
            "inputs": [],
            "outputs": [],
            "stateMutability": "nonpayable"
        },
        {
            "type": "function",
            "name": "transferOwnership",
            "inputs": [
                {
                    "name": "newOwner",
                    "type": "address",
                    "internalType": "address"
                }
            ],
            "outputs": [],
            "stateMutability": "nonpayable"
        },
        {
            "type": "function",
            "name": "upgrade",
            "inputs": [
                {
                    "name": "_rollup",
                    "type": "address",
                    "internalType": "address"
                }
            ],
            "outputs": [
                {
                    "name": "",
                    "type": "uint256",
                    "internalType": "uint256"
                }
            ],
            "stateMutability": "nonpayable"
        },
        {
            "type": "event",
            "name": "InstanceAdded",
            "inputs": [
                {
                    "name": "instance",
                    "type": "address",
                    "indexed": true,
                    "internalType": "address"
                },
                {
                    "name": "version",
                    "type": "uint256",
                    "indexed": true,
                    "internalType": "uint256"
                }
            ],
            "anonymous": false
        },
        {
            "type": "event",
            "name": "OwnershipTransferred",
            "inputs": [
                {
                    "name": "previousOwner",
                    "type": "address",
                    "indexed": true,
                    "internalType": "address"
                },
                {
                    "name": "newOwner",
                    "type": "address",
                    "indexed": true,
                    "internalType": "address"
                }
            ],
            "anonymous": false
        },
        {
            "type": "error",
            "name": "OwnableInvalidOwner",
            "inputs": [
                {
                    "name": "owner",
                    "type": "address",
                    "internalType": "address"
                }
            ]
        },
        {
            "type": "error",
            "name": "OwnableUnauthorizedAccount",
            "inputs": [
                {
                    "name": "account",
                    "type": "address",
                    "internalType": "address"
                }
            ]
        },
        {
            "type": "error",
            "name": "Registry__RollupAlreadyRegistered",
            "inputs": [
                {
                    "name": "rollup",
                    "type": "address",
                    "internalType": "address"
                }
            ]
        },
        {
            "type": "error",
            "name": "Registry__RollupNotRegistered",
            "inputs": [
                {
                    "name": "rollup",
                    "type": "address",
                    "internalType": "address"
                }
            ]
        }
    ],
    "bytecode": {
        "object": "0x608060405234801561000f575f5ffd5b506040516107ef3803806107ef83398101604081905261002e9161022f565b806001600160a01b03811661005d57604051631e4fbdf760e01b81525f60048201526024015b60405180910390fd5b61006681610079565b5061007261dead6100c8565b5050610280565b5f80546001600160a01b038381166001600160a01b0319831681178455604051919092169283917f8be0079c531659141344cd1fd0a4f28419497f9722a3daafe3b4186f6b6457e09190a35050565b5f806100d3836101ca565b9150508015839061010357604051633c34eabf60e01b81526001600160a01b039091166004820152602401610054565b50604080518082019091526001600160a01b0384168082524360208301819052600280546001600160a01b031916909217909155600355600180545f918261014a8361025c565b909155505f818152600460209081526040808320865181546001600160a01b0319166001600160a01b03918216178255878401516001909201919091558916808452600590925280832084905551929350839290917f1f6dfa612a6bba8cf5f10d1671962f54eab447fad2651649f9a082a493d0425991a3949350505050565b6001600160a01b0381165f9081526005602052604081205490818015158061022657505f805260046020527f17ef568e3e12ab5b9c7254a8d58478811de00f9e6eb34345acd53bf8fd09d3ec546001600160a01b038581169116145b91509150915091565b5f6020828403121561023f575f5ffd5b81516001600160a01b0381168114610255575f5ffd5b9392505050565b5f6001820161027957634e487b7160e01b5f52601160045260245ffd5b5060010190565b6105628061028d5f395ff3fe608060405234801561000f575f5ffd5b50600436106100a6575f3560e01c806376f10ad01161006e57806376f10ad01461012a5780638da5cb5b146101a1578063a4d2342a146101b1578063f2fde38b146101c2578063f6fc7eb6146101d5578063fe8beb711461020a575f5ffd5b80630900f010146100aa578063289b3c0d146100d057806352f44a14146100f45780635a4ce7ba14610117578063715018a614610120575b5f5ffd5b6100bd6100b83660046104c4565b61021d565b6040519081526020015b60405180910390f35b5f546001600160a01b03165b6040516001600160a01b0390911681526020016100c7565b6101076101023660046104c4565b610235565b60405190151581526020016100c7565b6100bd60015481565b610128610248565b005b61017d6101383660046104f1565b604080518082019091525f8082526020820152505f90815260046020908152604091829020825180840190935280546001600160a01b03168352600101549082015290565b6040805182516001600160a01b0316815260209283015192810192909252016100c7565b5f546001600160a01b03166100dc565b6002546001600160a01b03166100dc565b6101286101d03660046104c4565b61025b565b6040805180820182525f80825260209182015281518083019092526002546001600160a01b031682526003549082015261017d565b6100bd6102183660046104c4565b61029d565b5f6102266102e2565b61022f8261030e565b92915050565b5f5f61024083610410565b949350505050565b6102506102e2565b6102595f610475565b565b6102636102e2565b6001600160a01b03811661029157604051631e4fbdf760e01b81525f60048201526024015b60405180910390fd5b61029a81610475565b50565b5f5f5f6102a984610410565b915091508084906102d95760405163a1fee4cf60e01b81526001600160a01b039091166004820152602401610288565b50909392505050565b5f546001600160a01b031633146102595760405163118cdaa760e01b8152336004820152602401610288565b5f5f61031983610410565b9150508015839061034957604051633c34eabf60e01b81526001600160a01b039091166004820152602401610288565b50604080518082019091526001600160a01b0384168082524360208301819052600280546001600160a01b031916909217909155600355600180545f918261039083610508565b909155505f818152600460209081526040808320865181546001600160a01b0319166001600160a01b03918216178255878401516001909201919091558916808452600590925280832084905551929350839290917f1f6dfa612a6bba8cf5f10d1671962f54eab447fad2651649f9a082a493d0425991a3949350505050565b6001600160a01b0381165f9081526005602052604081205490818015158061046c57505f805260046020527f17ef568e3e12ab5b9c7254a8d58478811de00f9e6eb34345acd53bf8fd09d3ec546001600160a01b038581169116145b91509150915091565b5f80546001600160a01b038381166001600160a01b0319831681178455604051919092169283917f8be0079c531659141344cd1fd0a4f28419497f9722a3daafe3b4186f6b6457e09190a35050565b5f602082840312156104d4575f5ffd5b81356001600160a01b03811681146104ea575f5ffd5b9392505050565b5f60208284031215610501575f5ffd5b5035919050565b5f6001820161052557634e487b7160e01b5f52601160045260245ffd5b506001019056fea264697066735822122013974f9b675387e108a7e535395dd259b92fa8b0560b6c01d1276afc35adc17e64736f6c634300081b0033",
        "linkReferences": {}
    },
    "methodIdentifiers": {
        "getCurrentSnapshot()": "f6fc7eb6",
        "getGovernance()": "289b3c0d",
        "getRollup()": "a4d2342a",
        "getSnapshot(uint256)": "76f10ad0",
        "getVersionFor(address)": "fe8beb71",
        "isRollupRegistered(address)": "52f44a14",
        "numberOfVersions()": "5a4ce7ba",
        "owner()": "8da5cb5b",
        "renounceOwnership()": "715018a6",
        "transferOwnership(address)": "f2fde38b",
        "upgrade(address)": "0900f010"
    },
    "id": 88
}