{
    "abi": [
        {
            "type": "constructor",
            "inputs": [
                {
                    "name": "_fpcJuicePortal",
                    "type": "address",
                    "internalType": "contract IFeeJuicePortal"
                },
                {
                    "name": "_rewardDistributor",
                    "type": "address",
                    "internalType": "contract IRewardDistributor"
                },
                {
                    "name": "_stakingAsset",
                    "type": "address",
                    "internalType": "contract IERC20"
                },
                {
                    "name": "_vkTreeRoot",
                    "type": "bytes32",
                    "internalType": "bytes32"
                },
                {
                    "name": "_protocolContractTreeRoot",
                    "type": "bytes32",
                    "internalType": "bytes32"
                },
                {
                    "name": "_ares",
                    "type": "address",
                    "internalType": "address"
                },
                {
                    "name": "_config",
                    "type": "tuple",
                    "internalType": "struct Config",
                    "components": [
                        {
                            "name": "aztecSlotDuration",
                            "type": "uint256",
                            "internalType": "uint256"
                        },
                        {
                            "name": "aztecEpochDuration",
                            "type": "uint256",
                            "internalType": "uint256"
                        },
                        {
                            "name": "targetCommitteeSize",
                            "type": "uint256",
                            "internalType": "uint256"
                        },
                        {
                            "name": "aztecEpochProofClaimWindowInL2Slots",
                            "type": "uint256",
                            "internalType": "uint256"
                        },
                        {
                            "name": "minimumStake",
                            "type": "uint256",
                            "internalType": "uint256"
                        },
                        {
                            "name": "slashingQuorum",
                            "type": "uint256",
                            "internalType": "uint256"
                        },
                        {
                            "name": "slashingRoundSize",
                            "type": "uint256",
                            "internalType": "uint256"
                        }
                    ]
                }
            ],
            "stateMutability": "nonpayable"
        },
        {
            "type": "function",
            "name": "ASSET",
            "inputs": [],
            "outputs": [
                {
                    "name": "",
                    "type": "address",
                    "internalType": "contract IERC20"
                }
            ],
            "stateMutability": "view"
        },
        {
            "type": "function",
            "name": "CLAIM_DURATION_IN_L2_SLOTS",
            "inputs": [],
            "outputs": [
                {
                    "name": "",
                    "type": "uint256",
                    "internalType": "uint256"
                }
            ],
            "stateMutability": "view"
        },
        {
            "type": "function",
            "name": "CUAUHXICALLI",
            "inputs": [],
            "outputs": [
                {
                    "name": "",
                    "type": "address",
                    "internalType": "address"
                }
            ],
            "stateMutability": "view"
        },
        {
            "type": "function",
            "name": "FEE_JUICE_PORTAL",
            "inputs": [],
            "outputs": [
                {
                    "name": "",
                    "type": "address",
                    "internalType": "contract IFeeJuicePortal"
                }
            ],
            "stateMutability": "view"
        },
        {
            "type": "function",
            "name": "INBOX",
            "inputs": [],
            "outputs": [
                {
                    "name": "",
                    "type": "address",
                    "internalType": "contract IInbox"
                }
            ],
            "stateMutability": "view"
        },
        {
            "type": "function",
            "name": "IS_FOUNDRY_TEST",
            "inputs": [],
            "outputs": [
                {
                    "name": "",
                    "type": "bool",
                    "internalType": "bool"
                }
            ],
            "stateMutability": "view"
        },
        {
            "type": "function",
            "name": "L1_BLOCK_AT_GENESIS",
            "inputs": [],
            "outputs": [
                {
                    "name": "",
                    "type": "uint256",
                    "internalType": "uint256"
                }
            ],
            "stateMutability": "view"
        },
        {
            "type": "function",
            "name": "LAG",
            "inputs": [],
            "outputs": [
                {
                    "name": "",
                    "type": "uint256",
                    "internalType": "Slot"
                }
            ],
            "stateMutability": "view"
        },
        {
            "type": "function",
            "name": "LIFETIME",
            "inputs": [],
            "outputs": [
                {
                    "name": "",
                    "type": "uint256",
                    "internalType": "Slot"
                }
            ],
            "stateMutability": "view"
        },
        {
            "type": "function",
            "name": "OUTBOX",
            "inputs": [],
            "outputs": [
                {
                    "name": "",
                    "type": "address",
                    "internalType": "contract IOutbox"
                }
            ],
            "stateMutability": "view"
        },
        {
            "type": "function",
            "name": "PROOF_COMMITMENT_ESCROW",
            "inputs": [],
            "outputs": [
                {
                    "name": "",
                    "type": "address",
                    "internalType": "contract IProofCommitmentEscrow"
                }
            ],
            "stateMutability": "view"
        },
        {
            "type": "function",
            "name": "PROOF_COMMITMENT_MIN_BOND_AMOUNT_IN_TST",
            "inputs": [],
            "outputs": [
                {
                    "name": "",
                    "type": "uint256",
                    "internalType": "uint256"
                }
            ],
            "stateMutability": "view"
        },
        {
            "type": "function",
            "name": "REWARD_DISTRIBUTOR",
            "inputs": [],
            "outputs": [
                {
                    "name": "",
                    "type": "address",
                    "internalType": "contract IRewardDistributor"
                }
            ],
            "stateMutability": "view"
        },
        {
            "type": "function",
            "name": "TARGET_COMMITTEE_SIZE",
            "inputs": [],
            "outputs": [
                {
                    "name": "",
                    "type": "uint256",
                    "internalType": "uint256"
                }
            ],
            "stateMutability": "view"
        },
        {
            "type": "function",
            "name": "VERSION",
            "inputs": [],
            "outputs": [
                {
                    "name": "",
                    "type": "uint256",
                    "internalType": "uint256"
                }
            ],
            "stateMutability": "view"
        },
        {
            "type": "function",
            "name": "VM_ADDRESS",
            "inputs": [],
            "outputs": [
                {
                    "name": "",
                    "type": "address",
                    "internalType": "address"
                }
            ],
            "stateMutability": "view"
        },
        {
            "type": "function",
            "name": "archive",
            "inputs": [],
            "outputs": [
                {
                    "name": "",
                    "type": "bytes32",
                    "internalType": "bytes32"
                }
            ],
            "stateMutability": "view"
        },
        {
            "type": "function",
            "name": "archiveAt",
            "inputs": [
                {
                    "name": "_blockNumber",
                    "type": "uint256",
                    "internalType": "uint256"
                }
            ],
            "outputs": [
                {
                    "name": "",
                    "type": "bytes32",
                    "internalType": "bytes32"
                }
            ],
            "stateMutability": "view"
        },
        {
            "type": "function",
            "name": "canProposeAtTime",
            "inputs": [
                {
                    "name": "_ts",
                    "type": "uint256",
                    "internalType": "Timestamp"
                },
                {
                    "name": "_archive",
                    "type": "bytes32",
                    "internalType": "bytes32"
                }
            ],
            "outputs": [
                {
                    "name": "",
                    "type": "uint256",
                    "internalType": "Slot"
                },
                {
                    "name": "",
                    "type": "uint256",
                    "internalType": "uint256"
                }
            ],
            "stateMutability": "view"
        },
        {
            "type": "function",
            "name": "canPrune",
            "inputs": [],
            "outputs": [
                {
                    "name": "",
                    "type": "bool",
                    "internalType": "bool"
                }
            ],
            "stateMutability": "view"
        },
        {
            "type": "function",
            "name": "canPruneAtTime",
            "inputs": [
                {
                    "name": "_ts",
                    "type": "uint256",
                    "internalType": "Timestamp"
                }
            ],
            "outputs": [
                {
                    "name": "",
                    "type": "bool",
                    "internalType": "bool"
                }
            ],
            "stateMutability": "view"
        },
        {
            "type": "function",
            "name": "cheat__InitialiseValidatorSet",
            "inputs": [
                {
                    "name": "_args",
                    "type": "tuple[]",
                    "internalType": "struct CheatDepositArgs[]",
                    "components": [
                        {
                            "name": "attester",
                            "type": "address",
                            "internalType": "address"
                        },
                        {
                            "name": "proposer",
                            "type": "address",
                            "internalType": "address"
                        },
                        {
                            "name": "withdrawer",
                            "type": "address",
                            "internalType": "address"
                        },
                        {
                            "name": "amount",
                            "type": "uint256",
                            "internalType": "uint256"
                        }
                    ]
                }
            ],
            "outputs": [],
            "stateMutability": "nonpayable"
        },
        {
            "type": "function",
            "name": "checkBlob",
            "inputs": [],
            "outputs": [
                {
                    "name": "",
                    "type": "bool",
                    "internalType": "bool"
                }
            ],
            "stateMutability": "view"
        },
        {
            "type": "function",
            "name": "claimEpochProofRight",
            "inputs": [
                {
                    "name": "_quote",
                    "type": "tuple",
                    "internalType": "struct SignedEpochProofQuote",
                    "components": [
                        {
                            "name": "quote",
                            "type": "tuple",
                            "internalType": "struct EpochProofQuote",
                            "components": [
                                {
                                    "name": "epochToProve",
                                    "type": "uint256",
                                    "internalType": "Epoch"
                                },
                                {
                                    "name": "validUntilSlot",
                                    "type": "uint256",
                                    "internalType": "Slot"
                                },
                                {
                                    "name": "bondAmount",
                                    "type": "uint256",
                                    "internalType": "uint256"
                                },
                                {
                                    "name": "prover",
                                    "type": "address",
                                    "internalType": "address"
                                },
                                {
                                    "name": "basisPointFee",
                                    "type": "uint32",
                                    "internalType": "uint32"
                                }
                            ]
                        },
                        {
                            "name": "signature",
                            "type": "tuple",
                            "internalType": "struct Signature",
                            "components": [
                                {
                                    "name": "isEmpty",
                                    "type": "bool",
                                    "internalType": "bool"
                                },
                                {
                                    "name": "v",
                                    "type": "uint8",
                                    "internalType": "uint8"
                                },
                                {
                                    "name": "r",
                                    "type": "bytes32",
                                    "internalType": "bytes32"
                                },
                                {
                                    "name": "s",
                                    "type": "bytes32",
                                    "internalType": "bytes32"
                                }
                            ]
                        }
                    ]
                }
            ],
            "outputs": [],
            "stateMutability": "nonpayable"
        },
        {
            "type": "function",
            "name": "deposit",
            "inputs": [
                {
                    "name": "_attester",
                    "type": "address",
                    "internalType": "address"
                },
                {
                    "name": "_proposer",
                    "type": "address",
                    "internalType": "address"
                },
                {
                    "name": "_withdrawer",
                    "type": "address",
                    "internalType": "address"
                },
                {
                    "name": "_amount",
                    "type": "uint256",
                    "internalType": "uint256"
                }
            ],
            "outputs": [],
            "stateMutability": "nonpayable"
        },
        {
            "type": "function",
            "name": "eip712Domain",
            "inputs": [],
            "outputs": [
                {
                    "name": "fields",
                    "type": "bytes1",
                    "internalType": "bytes1"
                },
                {
                    "name": "name",
                    "type": "string",
                    "internalType": "string"
                },
                {
                    "name": "version",
                    "type": "string",
                    "internalType": "string"
                },
                {
                    "name": "chainId",
                    "type": "uint256",
                    "internalType": "uint256"
                },
                {
                    "name": "verifyingContract",
                    "type": "address",
                    "internalType": "address"
                },
                {
                    "name": "salt",
                    "type": "bytes32",
                    "internalType": "bytes32"
                },
                {
                    "name": "extensions",
                    "type": "uint256[]",
                    "internalType": "uint256[]"
                }
            ],
            "stateMutability": "view"
        },
        {
            "type": "function",
            "name": "finaliseWithdraw",
            "inputs": [
                {
                    "name": "_attester",
                    "type": "address",
                    "internalType": "address"
                }
            ],
            "outputs": [],
            "stateMutability": "nonpayable"
        },
        {
            "type": "function",
            "name": "getActiveAttesterCount",
            "inputs": [],
            "outputs": [
                {
                    "name": "",
                    "type": "uint256",
                    "internalType": "uint256"
                }
            ],
            "stateMutability": "view"
        },
        {
            "type": "function",
            "name": "getAttesterAtIndex",
            "inputs": [
                {
                    "name": "_index",
                    "type": "uint256",
                    "internalType": "uint256"
                }
            ],
            "outputs": [
                {
                    "name": "",
                    "type": "address",
                    "internalType": "address"
                }
            ],
            "stateMutability": "view"
        },
        {
            "type": "function",
            "name": "getAttesters",
            "inputs": [],
            "outputs": [
                {
                    "name": "",
                    "type": "address[]",
                    "internalType": "address[]"
                }
            ],
            "stateMutability": "view"
        },
        {
            "type": "function",
            "name": "getBlobPublicInputsHash",
            "inputs": [
                {
                    "name": "_blockNumber",
                    "type": "uint256",
                    "internalType": "uint256"
                }
            ],
            "outputs": [
                {
                    "name": "",
                    "type": "bytes32",
                    "internalType": "bytes32"
                }
            ],
            "stateMutability": "view"
        },
        {
            "type": "function",
            "name": "getBlock",
            "inputs": [
                {
                    "name": "_blockNumber",
                    "type": "uint256",
                    "internalType": "uint256"
                }
            ],
            "outputs": [
                {
                    "name": "",
                    "type": "tuple",
                    "internalType": "struct BlockLog",
                    "components": [
                        {
                            "name": "feeHeader",
                            "type": "tuple",
                            "internalType": "struct FeeHeader",
                            "components": [
                                {
                                    "name": "excessMana",
                                    "type": "uint256",
                                    "internalType": "uint256"
                                },
                                {
                                    "name": "feeAssetPriceNumerator",
                                    "type": "uint256",
                                    "internalType": "uint256"
                                },
                                {
                                    "name": "manaUsed",
                                    "type": "uint256",
                                    "internalType": "uint256"
                                },
                                {
                                    "name": "provingCostPerManaNumerator",
                                    "type": "uint256",
                                    "internalType": "uint256"
                                },
                                {
                                    "name": "congestionCost",
                                    "type": "uint256",
                                    "internalType": "uint256"
                                }
                            ]
                        },
                        {
                            "name": "archive",
                            "type": "bytes32",
                            "internalType": "bytes32"
                        },
                        {
                            "name": "blockHash",
                            "type": "bytes32",
                            "internalType": "bytes32"
                        },
                        {
                            "name": "slotNumber",
                            "type": "uint256",
                            "internalType": "Slot"
                        }
                    ]
                }
            ],
            "stateMutability": "view"
        },
        {
            "type": "function",
            "name": "getClaimableEpoch",
            "inputs": [],
            "outputs": [
                {
                    "name": "",
                    "type": "uint256",
                    "internalType": "Epoch"
                }
            ],
            "stateMutability": "view"
        },
        {
            "type": "function",
            "name": "getCommitteeAt",
            "inputs": [
                {
                    "name": "_ts",
                    "type": "uint256",
                    "internalType": "Timestamp"
                }
            ],
            "outputs": [
                {
                    "name": "",
                    "type": "address[]",
                    "internalType": "address[]"
                }
            ],
            "stateMutability": "view"
        },
        {
            "type": "function",
            "name": "getCurrentEpoch",
            "inputs": [],
            "outputs": [
                {
                    "name": "",
                    "type": "uint256",
                    "internalType": "Epoch"
                }
            ],
            "stateMutability": "view"
        },
        {
            "type": "function",
            "name": "getCurrentEpochCommittee",
            "inputs": [],
            "outputs": [
                {
                    "name": "",
                    "type": "address[]",
                    "internalType": "address[]"
                }
            ],
            "stateMutability": "view"
        },
        {
            "type": "function",
            "name": "getCurrentProposer",
            "inputs": [],
            "outputs": [
                {
                    "name": "",
                    "type": "address",
                    "internalType": "address"
                }
            ],
            "stateMutability": "view"
        },
        {
            "type": "function",
            "name": "getCurrentSampleSeed",
            "inputs": [],
            "outputs": [
                {
                    "name": "",
                    "type": "uint256",
                    "internalType": "uint256"
                }
            ],
            "stateMutability": "view"
        },
        {
            "type": "function",
            "name": "getCurrentSlot",
            "inputs": [],
            "outputs": [
                {
                    "name": "",
                    "type": "uint256",
                    "internalType": "Slot"
                }
            ],
            "stateMutability": "view"
        },
        {
            "type": "function",
            "name": "getEpochAt",
            "inputs": [
                {
                    "name": "_ts",
                    "type": "uint256",
                    "internalType": "Timestamp"
                }
            ],
            "outputs": [
                {
                    "name": "",
                    "type": "uint256",
                    "internalType": "Epoch"
                }
            ],
            "stateMutability": "view"
        },
        {
            "type": "function",
            "name": "getEpochAtSlot",
            "inputs": [
                {
                    "name": "_slotNumber",
                    "type": "uint256",
                    "internalType": "Slot"
                }
            ],
            "outputs": [
                {
                    "name": "",
                    "type": "uint256",
                    "internalType": "Epoch"
                }
            ],
            "stateMutability": "view"
        },
        {
            "type": "function",
            "name": "getEpochCommittee",
            "inputs": [
                {
                    "name": "_epoch",
                    "type": "uint256",
                    "internalType": "Epoch"
                }
            ],
            "outputs": [
                {
                    "name": "",
                    "type": "address[]",
                    "internalType": "address[]"
                }
            ],
            "stateMutability": "view"
        },
        {
            "type": "function",
            "name": "getEpochDuration",
            "inputs": [],
            "outputs": [
                {
                    "name": "",
                    "type": "uint256",
                    "internalType": "uint256"
                }
            ],
            "stateMutability": "view"
        },
        {
            "type": "function",
            "name": "getEpochForBlock",
            "inputs": [
                {
                    "name": "_blockNumber",
                    "type": "uint256",
                    "internalType": "uint256"
                }
            ],
            "outputs": [
                {
                    "name": "",
                    "type": "uint256",
                    "internalType": "Epoch"
                }
            ],
            "stateMutability": "view"
        },
        {
            "type": "function",
            "name": "getEpochProofPublicInputs",
            "inputs": [
                {
                    "name": "_epochSize",
                    "type": "uint256",
                    "internalType": "uint256"
                },
                {
                    "name": "_args",
                    "type": "bytes32[7]",
                    "internalType": "bytes32[7]"
                },
                {
                    "name": "_fees",
                    "type": "bytes32[]",
                    "internalType": "bytes32[]"
                },
                {
                    "name": "_blobPublicInputs",
                    "type": "bytes",
                    "internalType": "bytes"
                },
                {
                    "name": "_aggregationObject",
                    "type": "bytes",
                    "internalType": "bytes"
                }
            ],
            "outputs": [
                {
                    "name": "",
                    "type": "bytes32[]",
                    "internalType": "bytes32[]"
                }
            ],
            "stateMutability": "view"
        },
        {
            "type": "function",
            "name": "getEpochToProve",
            "inputs": [],
            "outputs": [
                {
                    "name": "",
                    "type": "uint256",
                    "internalType": "Epoch"
                }
            ],
            "stateMutability": "view"
        },
        {
            "type": "function",
            "name": "getExit",
            "inputs": [
                {
                    "name": "_attester",
                    "type": "address",
                    "internalType": "address"
                }
            ],
            "outputs": [
                {
                    "name": "",
                    "type": "tuple",
                    "internalType": "struct Exit",
                    "components": [
                        {
                            "name": "exitableAt",
                            "type": "uint256",
                            "internalType": "Timestamp"
                        },
                        {
                            "name": "recipient",
                            "type": "address",
                            "internalType": "address"
                        }
                    ]
                }
            ],
            "stateMutability": "view"
        },
        {
            "type": "function",
            "name": "getExitDelay",
            "inputs": [],
            "outputs": [
                {
                    "name": "",
                    "type": "uint256",
                    "internalType": "Timestamp"
                }
            ],
            "stateMutability": "view"
        },
        {
            "type": "function",
            "name": "getFeeAssetPrice",
            "inputs": [],
            "outputs": [
                {
                    "name": "",
                    "type": "uint256",
                    "internalType": "uint256"
                }
            ],
            "stateMutability": "view"
        },
        {
            "type": "function",
            "name": "getGenesisTime",
            "inputs": [],
            "outputs": [
                {
                    "name": "",
                    "type": "uint256",
                    "internalType": "Timestamp"
                }
            ],
            "stateMutability": "view"
        },
        {
            "type": "function",
            "name": "getInfo",
            "inputs": [
                {
                    "name": "_attester",
                    "type": "address",
                    "internalType": "address"
                }
            ],
            "outputs": [
                {
                    "name": "",
                    "type": "tuple",
                    "internalType": "struct ValidatorInfo",
                    "components": [
                        {
                            "name": "stake",
                            "type": "uint256",
                            "internalType": "uint256"
                        },
                        {
                            "name": "withdrawer",
                            "type": "address",
                            "internalType": "address"
                        },
                        {
                            "name": "proposer",
                            "type": "address",
                            "internalType": "address"
                        },
                        {
                            "name": "status",
                            "type": "uint8",
                            "internalType": "enum Status"
                        }
                    ]
                }
            ],
            "stateMutability": "view"
        },
        {
            "type": "function",
            "name": "getL1FeesAt",
            "inputs": [
                {
                    "name": "_timestamp",
                    "type": "uint256",
                    "internalType": "Timestamp"
                }
            ],
            "outputs": [
                {
                    "name": "",
                    "type": "tuple",
                    "internalType": "struct L1FeeData",
                    "components": [
                        {
                            "name": "baseFee",
                            "type": "uint256",
                            "internalType": "uint256"
                        },
                        {
                            "name": "blobFee",
                            "type": "uint256",
                            "internalType": "uint256"
                        }
                    ]
                }
            ],
            "stateMutability": "view"
        },
        {
            "type": "function",
            "name": "getManaBaseFeeAt",
            "inputs": [
                {
                    "name": "_timestamp",
                    "type": "uint256",
                    "internalType": "Timestamp"
                },
                {
                    "name": "_inFeeAsset",
                    "type": "bool",
                    "internalType": "bool"
                }
            ],
            "outputs": [
                {
                    "name": "",
                    "type": "uint256",
                    "internalType": "uint256"
                }
            ],
            "stateMutability": "view"
        },
        {
            "type": "function",
            "name": "getManaBaseFeeComponentsAt",
            "inputs": [
                {
                    "name": "_timestamp",
                    "type": "uint256",
                    "internalType": "Timestamp"
                },
                {
                    "name": "_inFeeAsset",
                    "type": "bool",
                    "internalType": "bool"
                }
            ],
            "outputs": [
                {
                    "name": "",
                    "type": "tuple",
                    "internalType": "struct ManaBaseFeeComponents",
                    "components": [
                        {
                            "name": "congestionCost",
                            "type": "uint256",
                            "internalType": "uint256"
                        },
                        {
                            "name": "congestionMultiplier",
                            "type": "uint256",
                            "internalType": "uint256"
                        },
                        {
                            "name": "dataCost",
                            "type": "uint256",
                            "internalType": "uint256"
                        },
                        {
                            "name": "gasCost",
                            "type": "uint256",
                            "internalType": "uint256"
                        },
                        {
                            "name": "provingCost",
                            "type": "uint256",
                            "internalType": "uint256"
                        }
                    ]
                }
            ],
            "stateMutability": "view"
        },
        {
            "type": "function",
            "name": "getMinimumStake",
            "inputs": [],
            "outputs": [
                {
                    "name": "",
                    "type": "uint256",
                    "internalType": "uint256"
                }
            ],
            "stateMutability": "view"
        },
        {
            "type": "function",
            "name": "getOperatorAtIndex",
            "inputs": [
                {
                    "name": "_index",
                    "type": "uint256",
                    "internalType": "uint256"
                }
            ],
            "outputs": [
                {
                    "name": "",
                    "type": "tuple",
                    "internalType": "struct OperatorInfo",
                    "components": [
                        {
                            "name": "proposer",
                            "type": "address",
                            "internalType": "address"
                        },
                        {
                            "name": "attester",
                            "type": "address",
                            "internalType": "address"
                        }
                    ]
                }
            ],
            "stateMutability": "view"
        },
        {
            "type": "function",
            "name": "getPendingBlockNumber",
            "inputs": [],
            "outputs": [
                {
                    "name": "",
                    "type": "uint256",
                    "internalType": "uint256"
                }
            ],
            "stateMutability": "view"
        },
        {
            "type": "function",
            "name": "getProofClaim",
            "inputs": [],
            "outputs": [
                {
                    "name": "",
                    "type": "tuple",
                    "internalType": "struct DataStructures.EpochProofClaim",
                    "components": [
                        {
                            "name": "epochToProve",
                            "type": "uint256",
                            "internalType": "Epoch"
                        },
                        {
                            "name": "basisPointFee",
                            "type": "uint256",
                            "internalType": "uint256"
                        },
                        {
                            "name": "bondAmount",
                            "type": "uint256",
                            "internalType": "uint256"
                        },
                        {
                            "name": "bondProvider",
                            "type": "address",
                            "internalType": "address"
                        },
                        {
                            "name": "proposerClaimant",
                            "type": "address",
                            "internalType": "address"
                        }
                    ]
                }
            ],
            "stateMutability": "view"
        },
        {
            "type": "function",
            "name": "getProposerAt",
            "inputs": [
                {
                    "name": "_ts",
                    "type": "uint256",
                    "internalType": "Timestamp"
                }
            ],
            "outputs": [
                {
                    "name": "",
                    "type": "address",
                    "internalType": "address"
                }
            ],
            "stateMutability": "view"
        },
        {
            "type": "function",
            "name": "getProposerAtIndex",
            "inputs": [
                {
                    "name": "_index",
                    "type": "uint256",
                    "internalType": "uint256"
                }
            ],
            "outputs": [
                {
                    "name": "",
                    "type": "address",
                    "internalType": "address"
                }
            ],
            "stateMutability": "view"
        },
        {
            "type": "function",
            "name": "getProposerForAttester",
            "inputs": [
                {
                    "name": "_attester",
                    "type": "address",
                    "internalType": "address"
                }
            ],
            "outputs": [
                {
                    "name": "",
                    "type": "address",
                    "internalType": "address"
                }
            ],
            "stateMutability": "view"
        },
        {
            "type": "function",
            "name": "getProvenBlockNumber",
            "inputs": [],
            "outputs": [
                {
                    "name": "",
                    "type": "uint256",
                    "internalType": "uint256"
                }
            ],
            "stateMutability": "view"
        },
        {
            "type": "function",
            "name": "getSampleSeedAt",
            "inputs": [
                {
                    "name": "_ts",
                    "type": "uint256",
                    "internalType": "Timestamp"
                }
            ],
            "outputs": [
                {
                    "name": "",
                    "type": "uint256",
                    "internalType": "uint256"
                }
            ],
            "stateMutability": "view"
        },
        {
            "type": "function",
            "name": "getSlasher",
            "inputs": [],
            "outputs": [
                {
                    "name": "",
                    "type": "address",
                    "internalType": "address"
                }
            ],
            "stateMutability": "view"
        },
        {
            "type": "function",
            "name": "getSlotAt",
            "inputs": [
                {
                    "name": "_ts",
                    "type": "uint256",
                    "internalType": "Timestamp"
                }
            ],
            "outputs": [
                {
                    "name": "",
                    "type": "uint256",
                    "internalType": "Slot"
                }
            ],
            "stateMutability": "view"
        },
        {
            "type": "function",
            "name": "getSlotDuration",
            "inputs": [],
            "outputs": [
                {
                    "name": "",
                    "type": "uint256",
                    "internalType": "uint256"
                }
            ],
            "stateMutability": "view"
        },
        {
            "type": "function",
            "name": "getStakingAsset",
            "inputs": [],
            "outputs": [
                {
                    "name": "",
                    "type": "address",
                    "internalType": "contract IERC20"
                }
            ],
            "stateMutability": "view"
        },
        {
            "type": "function",
            "name": "getTimestampForSlot",
            "inputs": [
                {
                    "name": "_slotNumber",
                    "type": "uint256",
                    "internalType": "Slot"
                }
            ],
            "outputs": [
                {
                    "name": "",
                    "type": "uint256",
                    "internalType": "Timestamp"
                }
            ],
            "stateMutability": "view"
        },
        {
            "type": "function",
            "name": "getTips",
            "inputs": [],
            "outputs": [
                {
                    "name": "",
                    "type": "tuple",
                    "internalType": "struct ChainTips",
                    "components": [
                        {
                            "name": "pendingBlockNumber",
                            "type": "uint256",
                            "internalType": "uint256"
                        },
                        {
                            "name": "provenBlockNumber",
                            "type": "uint256",
                            "internalType": "uint256"
                        }
                    ]
                }
            ],
            "stateMutability": "view"
        },
        {
            "type": "function",
            "name": "initiateWithdraw",
            "inputs": [
                {
                    "name": "_attester",
                    "type": "address",
                    "internalType": "address"
                },
                {
                    "name": "_recipient",
                    "type": "address",
                    "internalType": "address"
                }
            ],
            "outputs": [
                {
                    "name": "",
                    "type": "bool",
                    "internalType": "bool"
                }
            ],
            "stateMutability": "nonpayable"
        },
        {
            "type": "function",
            "name": "owner",
            "inputs": [],
            "outputs": [
                {
                    "name": "",
                    "type": "address",
                    "internalType": "address"
                }
            ],
            "stateMutability": "view"
        },
        {
            "type": "function",
            "name": "propose",
            "inputs": [
                {
                    "name": "_args",
                    "type": "tuple",
                    "internalType": "struct ProposeArgs",
                    "components": [
                        {
                            "name": "archive",
                            "type": "bytes32",
                            "internalType": "bytes32"
                        },
                        {
                            "name": "blockHash",
                            "type": "bytes32",
                            "internalType": "bytes32"
                        },
                        {
                            "name": "oracleInput",
                            "type": "tuple",
                            "internalType": "struct OracleInput",
                            "components": [
                                {
                                    "name": "provingCostModifier",
                                    "type": "int256",
                                    "internalType": "int256"
                                },
                                {
                                    "name": "feeAssetPriceModifier",
                                    "type": "int256",
                                    "internalType": "int256"
                                }
                            ]
                        },
                        {
                            "name": "header",
                            "type": "bytes",
                            "internalType": "bytes"
                        },
                        {
                            "name": "txHashes",
                            "type": "bytes32[]",
                            "internalType": "bytes32[]"
                        }
                    ]
                },
                {
                    "name": "_signatures",
                    "type": "tuple[]",
                    "internalType": "struct Signature[]",
                    "components": [
                        {
                            "name": "isEmpty",
                            "type": "bool",
                            "internalType": "bool"
                        },
                        {
                            "name": "v",
                            "type": "uint8",
                            "internalType": "uint8"
                        },
                        {
                            "name": "r",
                            "type": "bytes32",
                            "internalType": "bytes32"
                        },
                        {
                            "name": "s",
                            "type": "bytes32",
                            "internalType": "bytes32"
                        }
                    ]
                },
                {
                    "name": "",
                    "type": "bytes",
                    "internalType": "bytes"
                },
                {
                    "name": "_blobInput",
                    "type": "bytes",
                    "internalType": "bytes"
                }
            ],
            "outputs": [],
            "stateMutability": "nonpayable"
        },
        {
            "type": "function",
            "name": "proposeAndClaim",
            "inputs": [
                {
                    "name": "_args",
                    "type": "tuple",
                    "internalType": "struct ProposeArgs",
                    "components": [
                        {
                            "name": "archive",
                            "type": "bytes32",
                            "internalType": "bytes32"
                        },
                        {
                            "name": "blockHash",
                            "type": "bytes32",
                            "internalType": "bytes32"
                        },
                        {
                            "name": "oracleInput",
                            "type": "tuple",
                            "internalType": "struct OracleInput",
                            "components": [
                                {
                                    "name": "provingCostModifier",
                                    "type": "int256",
                                    "internalType": "int256"
                                },
                                {
                                    "name": "feeAssetPriceModifier",
                                    "type": "int256",
                                    "internalType": "int256"
                                }
                            ]
                        },
                        {
                            "name": "header",
                            "type": "bytes",
                            "internalType": "bytes"
                        },
                        {
                            "name": "txHashes",
                            "type": "bytes32[]",
                            "internalType": "bytes32[]"
                        }
                    ]
                },
                {
                    "name": "_signatures",
                    "type": "tuple[]",
                    "internalType": "struct Signature[]",
                    "components": [
                        {
                            "name": "isEmpty",
                            "type": "bool",
                            "internalType": "bool"
                        },
                        {
                            "name": "v",
                            "type": "uint8",
                            "internalType": "uint8"
                        },
                        {
                            "name": "r",
                            "type": "bytes32",
                            "internalType": "bytes32"
                        },
                        {
                            "name": "s",
                            "type": "bytes32",
                            "internalType": "bytes32"
                        }
                    ]
                },
                {
                    "name": "_body",
                    "type": "bytes",
                    "internalType": "bytes"
                },
                {
                    "name": "_blobInput",
                    "type": "bytes",
                    "internalType": "bytes"
                },
                {
                    "name": "_quote",
                    "type": "tuple",
                    "internalType": "struct SignedEpochProofQuote",
                    "components": [
                        {
                            "name": "quote",
                            "type": "tuple",
                            "internalType": "struct EpochProofQuote",
                            "components": [
                                {
                                    "name": "epochToProve",
                                    "type": "uint256",
                                    "internalType": "Epoch"
                                },
                                {
                                    "name": "validUntilSlot",
                                    "type": "uint256",
                                    "internalType": "Slot"
                                },
                                {
                                    "name": "bondAmount",
                                    "type": "uint256",
                                    "internalType": "uint256"
                                },
                                {
                                    "name": "prover",
                                    "type": "address",
                                    "internalType": "address"
                                },
                                {
                                    "name": "basisPointFee",
                                    "type": "uint32",
                                    "internalType": "uint32"
                                }
                            ]
                        },
                        {
                            "name": "signature",
                            "type": "tuple",
                            "internalType": "struct Signature",
                            "components": [
                                {
                                    "name": "isEmpty",
                                    "type": "bool",
                                    "internalType": "bool"
                                },
                                {
                                    "name": "v",
                                    "type": "uint8",
                                    "internalType": "uint8"
                                },
                                {
                                    "name": "r",
                                    "type": "bytes32",
                                    "internalType": "bytes32"
                                },
                                {
                                    "name": "s",
                                    "type": "bytes32",
                                    "internalType": "bytes32"
                                }
                            ]
                        }
                    ]
                }
            ],
            "outputs": [],
            "stateMutability": "nonpayable"
        },
        {
            "type": "function",
            "name": "prune",
            "inputs": [],
            "outputs": [],
            "stateMutability": "nonpayable"
        },
        {
            "type": "function",
            "name": "quoteToDigest",
            "inputs": [
                {
                    "name": "_quote",
                    "type": "tuple",
                    "internalType": "struct EpochProofQuote",
                    "components": [
                        {
                            "name": "epochToProve",
                            "type": "uint256",
                            "internalType": "Epoch"
                        },
                        {
                            "name": "validUntilSlot",
                            "type": "uint256",
                            "internalType": "Slot"
                        },
                        {
                            "name": "bondAmount",
                            "type": "uint256",
                            "internalType": "uint256"
                        },
                        {
                            "name": "prover",
                            "type": "address",
                            "internalType": "address"
                        },
                        {
                            "name": "basisPointFee",
                            "type": "uint32",
                            "internalType": "uint32"
                        }
                    ]
                }
            ],
            "outputs": [
                {
                    "name": "",
                    "type": "bytes32",
                    "internalType": "bytes32"
                }
            ],
            "stateMutability": "view"
        },
        {
            "type": "function",
            "name": "renounceOwnership",
            "inputs": [],
            "outputs": [],
            "stateMutability": "nonpayable"
        },
        {
            "type": "function",
            "name": "setAssumeProvenThroughBlockNumber",
            "inputs": [
                {
                    "name": "_blockNumber",
                    "type": "uint256",
                    "internalType": "uint256"
                }
            ],
            "outputs": [],
            "stateMutability": "nonpayable"
        },
        {
            "type": "function",
            "name": "setEpochVerifier",
            "inputs": [
                {
                    "name": "_verifier",
                    "type": "address",
                    "internalType": "address"
                }
            ],
            "outputs": [],
            "stateMutability": "nonpayable"
        },
        {
            "type": "function",
            "name": "setProtocolContractTreeRoot",
            "inputs": [
                {
                    "name": "_protocolContractTreeRoot",
                    "type": "bytes32",
                    "internalType": "bytes32"
                }
            ],
            "outputs": [],
            "stateMutability": "nonpayable"
        },
        {
            "type": "function",
            "name": "setVkTreeRoot",
            "inputs": [
                {
                    "name": "_vkTreeRoot",
                    "type": "bytes32",
                    "internalType": "bytes32"
                }
            ],
            "outputs": [],
            "stateMutability": "nonpayable"
        },
        {
            "type": "function",
            "name": "setupEpoch",
            "inputs": [],
            "outputs": [],
            "stateMutability": "nonpayable"
        },
        {
            "type": "function",
            "name": "slash",
            "inputs": [
                {
                    "name": "_attester",
                    "type": "address",
                    "internalType": "address"
                },
                {
                    "name": "_amount",
                    "type": "uint256",
                    "internalType": "uint256"
                }
            ],
            "outputs": [],
            "stateMutability": "nonpayable"
        },
        {
            "type": "function",
            "name": "status",
            "inputs": [
                {
                    "name": "_myHeaderBlockNumber",
                    "type": "uint256",
                    "internalType": "uint256"
                }
            ],
            "outputs": [
                {
                    "name": "provenBlockNumber",
                    "type": "uint256",
                    "internalType": "uint256"
                },
                {
                    "name": "provenArchive",
                    "type": "bytes32",
                    "internalType": "bytes32"
                },
                {
                    "name": "pendingBlockNumber",
                    "type": "uint256",
                    "internalType": "uint256"
                },
                {
                    "name": "pendingArchive",
                    "type": "bytes32",
                    "internalType": "bytes32"
                },
                {
                    "name": "archiveOfMyBlock",
                    "type": "bytes32",
                    "internalType": "bytes32"
                },
                {
                    "name": "provenEpochNumber",
                    "type": "uint256",
                    "internalType": "Epoch"
                }
            ],
            "stateMutability": "view"
        },
        {
            "type": "function",
            "name": "submitEpochRootProof",
            "inputs": [
                {
                    "name": "_args",
                    "type": "tuple",
                    "internalType": "struct SubmitEpochRootProofArgs",
                    "components": [
                        {
                            "name": "epochSize",
                            "type": "uint256",
                            "internalType": "uint256"
                        },
                        {
                            "name": "args",
                            "type": "bytes32[7]",
                            "internalType": "bytes32[7]"
                        },
                        {
                            "name": "fees",
                            "type": "bytes32[]",
                            "internalType": "bytes32[]"
                        },
                        {
                            "name": "blobPublicInputs",
                            "type": "bytes",
                            "internalType": "bytes"
                        },
                        {
                            "name": "aggregationObject",
                            "type": "bytes",
                            "internalType": "bytes"
                        },
                        {
                            "name": "proof",
                            "type": "bytes",
                            "internalType": "bytes"
                        }
                    ]
                }
            ],
            "outputs": [],
            "stateMutability": "nonpayable"
        },
        {
            "type": "function",
            "name": "transferOwnership",
            "inputs": [
                {
                    "name": "newOwner",
                    "type": "address",
                    "internalType": "address"
                }
            ],
            "outputs": [],
            "stateMutability": "nonpayable"
        },
        {
            "type": "function",
            "name": "updateL1GasFeeOracle",
            "inputs": [],
            "outputs": [],
            "stateMutability": "nonpayable"
        },
        {
            "type": "function",
            "name": "validateBlobs",
            "inputs": [
                {
                    "name": "_blobsInput",
                    "type": "bytes",
                    "internalType": "bytes"
                }
            ],
            "outputs": [
                {
                    "name": "",
                    "type": "bytes32[]",
                    "internalType": "bytes32[]"
                },
                {
                    "name": "",
                    "type": "bytes32",
                    "internalType": "bytes32"
                },
                {
                    "name": "",
                    "type": "bytes32",
                    "internalType": "bytes32"
                }
            ],
            "stateMutability": "view"
        },
        {
            "type": "function",
            "name": "validateEpochProofRightClaimAtTime",
            "inputs": [
                {
                    "name": "_ts",
                    "type": "uint256",
                    "internalType": "Timestamp"
                },
                {
                    "name": "_quote",
                    "type": "tuple",
                    "internalType": "struct SignedEpochProofQuote",
                    "components": [
                        {
                            "name": "quote",
                            "type": "tuple",
                            "internalType": "struct EpochProofQuote",
                            "components": [
                                {
                                    "name": "epochToProve",
                                    "type": "uint256",
                                    "internalType": "Epoch"
                                },
                                {
                                    "name": "validUntilSlot",
                                    "type": "uint256",
                                    "internalType": "Slot"
                                },
                                {
                                    "name": "bondAmount",
                                    "type": "uint256",
                                    "internalType": "uint256"
                                },
                                {
                                    "name": "prover",
                                    "type": "address",
                                    "internalType": "address"
                                },
                                {
                                    "name": "basisPointFee",
                                    "type": "uint32",
                                    "internalType": "uint32"
                                }
                            ]
                        },
                        {
                            "name": "signature",
                            "type": "tuple",
                            "internalType": "struct Signature",
                            "components": [
                                {
                                    "name": "isEmpty",
                                    "type": "bool",
                                    "internalType": "bool"
                                },
                                {
                                    "name": "v",
                                    "type": "uint8",
                                    "internalType": "uint8"
                                },
                                {
                                    "name": "r",
                                    "type": "bytes32",
                                    "internalType": "bytes32"
                                },
                                {
                                    "name": "s",
                                    "type": "bytes32",
                                    "internalType": "bytes32"
                                }
                            ]
                        }
                    ]
                }
            ],
            "outputs": [],
            "stateMutability": "view"
        },
        {
            "type": "function",
            "name": "validateHeader",
            "inputs": [
                {
                    "name": "_header",
                    "type": "bytes",
                    "internalType": "bytes"
                },
                {
                    "name": "_signatures",
                    "type": "tuple[]",
                    "internalType": "struct Signature[]",
                    "components": [
                        {
                            "name": "isEmpty",
                            "type": "bool",
                            "internalType": "bool"
                        },
                        {
                            "name": "v",
                            "type": "uint8",
                            "internalType": "uint8"
                        },
                        {
                            "name": "r",
                            "type": "bytes32",
                            "internalType": "bytes32"
                        },
                        {
                            "name": "s",
                            "type": "bytes32",
                            "internalType": "bytes32"
                        }
                    ]
                },
                {
                    "name": "_digest",
                    "type": "bytes32",
                    "internalType": "bytes32"
                },
                {
                    "name": "_currentTime",
                    "type": "uint256",
                    "internalType": "Timestamp"
                },
                {
                    "name": "_blobsHashesCommitment",
                    "type": "bytes32",
                    "internalType": "bytes32"
                },
                {
                    "name": "_flags",
                    "type": "tuple",
                    "internalType": "struct DataStructures.ExecutionFlags",
                    "components": [
                        {
                            "name": "ignoreDA",
                            "type": "bool",
                            "internalType": "bool"
                        },
                        {
                            "name": "ignoreSignatures",
                            "type": "bool",
                            "internalType": "bool"
                        }
                    ]
                }
            ],
            "outputs": [],
            "stateMutability": "view"
        },
        {
            "type": "event",
            "name": "Deposit",
            "inputs": [
                {
                    "name": "attester",
                    "type": "address",
                    "indexed": true,
                    "internalType": "address"
                },
                {
                    "name": "proposer",
                    "type": "address",
                    "indexed": true,
                    "internalType": "address"
                },
                {
                    "name": "withdrawer",
                    "type": "address",
                    "indexed": true,
                    "internalType": "address"
                },
                {
                    "name": "amount",
                    "type": "uint256",
                    "indexed": false,
                    "internalType": "uint256"
                }
            ],
            "anonymous": false
        },
        {
            "type": "event",
            "name": "EIP712DomainChanged",
            "inputs": [],
            "anonymous": false
        },
        {
            "type": "event",
            "name": "L2BlockProposed",
            "inputs": [
                {
                    "name": "blockNumber",
                    "type": "uint256",
                    "indexed": true,
                    "internalType": "uint256"
                },
                {
                    "name": "archive",
                    "type": "bytes32",
                    "indexed": true,
                    "internalType": "bytes32"
                },
                {
                    "name": "versionedBlobHashes",
                    "type": "bytes32[]",
                    "indexed": false,
                    "internalType": "bytes32[]"
                }
            ],
            "anonymous": false
        },
        {
            "type": "event",
            "name": "L2ProofVerified",
            "inputs": [
                {
                    "name": "blockNumber",
                    "type": "uint256",
                    "indexed": true,
                    "internalType": "uint256"
                },
                {
                    "name": "proverId",
                    "type": "bytes32",
                    "indexed": true,
                    "internalType": "bytes32"
                }
            ],
            "anonymous": false
        },
        {
            "type": "event",
            "name": "OwnershipTransferred",
            "inputs": [
                {
                    "name": "previousOwner",
                    "type": "address",
                    "indexed": true,
                    "internalType": "address"
                },
                {
                    "name": "newOwner",
                    "type": "address",
                    "indexed": true,
                    "internalType": "address"
                }
            ],
            "anonymous": false
        },
        {
            "type": "event",
            "name": "ProofRightClaimed",
            "inputs": [
                {
                    "name": "epoch",
                    "type": "uint256",
                    "indexed": true,
                    "internalType": "Epoch"
                },
                {
                    "name": "bondProvider",
                    "type": "address",
                    "indexed": true,
                    "internalType": "address"
                },
                {
                    "name": "proposer",
                    "type": "address",
                    "indexed": true,
                    "internalType": "address"
                },
                {
                    "name": "bondAmount",
                    "type": "uint256",
                    "indexed": false,
                    "internalType": "uint256"
                },
                {
                    "name": "currentSlot",
                    "type": "uint256",
                    "indexed": false,
                    "internalType": "Slot"
                }
            ],
            "anonymous": false
        },
        {
            "type": "event",
            "name": "PrunedPending",
            "inputs": [
                {
                    "name": "provenBlockNumber",
                    "type": "uint256",
                    "indexed": false,
                    "internalType": "uint256"
                },
                {
                    "name": "pendingBlockNumber",
                    "type": "uint256",
                    "indexed": false,
                    "internalType": "uint256"
                }
            ],
            "anonymous": false
        },
        {
            "type": "event",
            "name": "Slashed",
            "inputs": [
                {
                    "name": "attester",
                    "type": "address",
                    "indexed": true,
                    "internalType": "address"
                },
                {
                    "name": "amount",
                    "type": "uint256",
                    "indexed": false,
                    "internalType": "uint256"
                }
            ],
            "anonymous": false
        },
        {
            "type": "event",
            "name": "WithdrawFinalised",
            "inputs": [
                {
                    "name": "attester",
                    "type": "address",
                    "indexed": true,
                    "internalType": "address"
                },
                {
                    "name": "recipient",
                    "type": "address",
                    "indexed": true,
                    "internalType": "address"
                },
                {
                    "name": "amount",
                    "type": "uint256",
                    "indexed": false,
                    "internalType": "uint256"
                }
            ],
            "anonymous": false
        },
        {
            "type": "event",
            "name": "WithdrawInitiated",
            "inputs": [
                {
                    "name": "attester",
                    "type": "address",
                    "indexed": true,
                    "internalType": "address"
                },
                {
                    "name": "recipient",
                    "type": "address",
                    "indexed": true,
                    "internalType": "address"
                },
                {
                    "name": "amount",
                    "type": "uint256",
                    "indexed": false,
                    "internalType": "uint256"
                }
            ],
            "anonymous": false
        },
        {
            "type": "error",
            "name": "HeaderLib__InvalidSlotNumber",
            "inputs": [
                {
                    "name": "expected",
                    "type": "uint256",
                    "internalType": "Slot"
                },
                {
                    "name": "actual",
                    "type": "uint256",
                    "internalType": "Slot"
                }
            ]
        },
        {
            "type": "error",
            "name": "InvalidShortString",
            "inputs": []
        },
        {
            "type": "error",
            "name": "OwnableInvalidOwner",
            "inputs": [
                {
                    "name": "owner",
                    "type": "address",
                    "internalType": "address"
                }
            ]
        },
        {
            "type": "error",
            "name": "OwnableUnauthorizedAccount",
            "inputs": [
                {
                    "name": "account",
                    "type": "address",
                    "internalType": "address"
                }
            ]
        },
        {
            "type": "error",
            "name": "Rollup__InvalidArchive",
            "inputs": [
                {
                    "name": "expected",
                    "type": "bytes32",
                    "internalType": "bytes32"
                },
                {
                    "name": "actual",
                    "type": "bytes32",
                    "internalType": "bytes32"
                }
            ]
        },
        {
            "type": "error",
            "name": "Rollup__InvalidBlockNumber",
            "inputs": [
                {
                    "name": "expected",
                    "type": "uint256",
                    "internalType": "uint256"
                },
                {
                    "name": "actual",
                    "type": "uint256",
                    "internalType": "uint256"
                }
            ]
        },
        {
            "type": "error",
            "name": "Rollup__InvalidEpoch",
            "inputs": [
                {
                    "name": "expected",
                    "type": "uint256",
                    "internalType": "Epoch"
                },
                {
                    "name": "actual",
                    "type": "uint256",
                    "internalType": "Epoch"
                }
            ]
        },
        {
            "type": "error",
            "name": "Rollup__InvalidInHash",
            "inputs": [
                {
                    "name": "expected",
                    "type": "bytes32",
                    "internalType": "bytes32"
                },
                {
                    "name": "actual",
                    "type": "bytes32",
                    "internalType": "bytes32"
                }
            ]
        },
        {
            "type": "error",
            "name": "Rollup__NoEpochToProve",
            "inputs": []
        },
        {
            "type": "error",
            "name": "Rollup__NothingToPrune",
            "inputs": []
        },
        {
            "type": "error",
            "name": "Rollup__ProofRightAlreadyClaimed",
            "inputs": []
        },
        {
            "type": "error",
            "name": "Rollup__SlotAlreadyInChain",
            "inputs": [
                {
                    "name": "lastSlot",
                    "type": "uint256",
                    "internalType": "Slot"
                },
                {
                    "name": "proposedSlot",
                    "type": "uint256",
                    "internalType": "Slot"
                }
            ]
        },
        {
            "type": "error",
            "name": "SafeCastOverflowedIntToUint",
            "inputs": [
                {
                    "name": "value",
                    "type": "int256",
                    "internalType": "int256"
                }
            ]
        },
        {
            "type": "error",
            "name": "StringTooLong",
            "inputs": [
                {
                    "name": "str",
                    "type": "string",
                    "internalType": "string"
                }
            ]
        },
        {
            "type": "error",
            "name": "ValidatorSelection__InvalidDeposit",
            "inputs": [
                {
                    "name": "attester",
                    "type": "address",
                    "internalType": "address"
                },
                {
                    "name": "proposer",
                    "type": "address",
                    "internalType": "address"
                }
            ]
        }
    ],
    "bytecode": {
        "object": "0x6102c06040526005805460ff1916600117905534801561001d575f5ffd5b5060405161a08a38038061a08a83398101604081905261003c916108b0565b8481608001518260a001518360c00151845f015185602001518660400151886040518060400160405280600c81526020016b0417a74656320526f6c6c75760a41b815250604051806040016040528060018152602001603160f81b8152506100ad5f8361078460201b90919060201c565b610120526100bc816001610784565b61014052815160208084019190912060e052815190820120610100524660a05261014860e05161010051604080517f8b73c3c69bb8fe3d512ecc4cf759cc79239f7b179b0ffacaa9a75d522b39400f60208201529081019290925260608201524660808201523060a08201525f9060c00160405160208183030381529060405280519060200120905090565b60805250503060c0526001600160a01b03811661017f57604051631e4fbdf760e01b81525f60048201526024015b60405180910390fd5b610188816107b6565b50610160819052427fcc2bde3d21ba778aa5c156bb6fc47381978b0054c8a1ef73f44234164324cbe0557fcc2bde3d21ba778aa5c156bb6fc47381978b0054c8a1ef73f44234164324cbe18390557fcc2bde3d21ba778aa5c156bb6fc47381978b0054c8a1ef73f44234164324cbe28290555f6201518090505f868660405161021090610844565b9182526020820152604001604051809103905ff080158015610234573d5f5f3e3d5ffd5b50604051626ab36360e51b81526001600160a01b03808c166004830152602482018b9052604482018590528216606482015290915073__$f6f607895dae8739569bdad20c7163daf4$__90630d566c60906084015f6040518083038186803b15801561029e575f5ffd5b505af41580156102b0573d5f5f3e3d5ffd5b50505050505050505050505050866001600160a01b0316610260816001600160a01b031681525050856001600160a01b0316610280816001600160a01b031681525050866001600160a01b031663c5d664c66040518163ffffffff1660e01b8152600401602060405180830381865afa15801561032f573d5f5f3e3d5ffd5b505050506040513d601f19601f8201168201806040525081019061035391906109ac565b6001600160a01b03166102a0819052815160208301516040513092919061037990610851565b6001600160a01b03948516815293909216602084015260408301526060820152608001604051809103905ff0801580156103b5573d5f5f3e3d5ffd5b506001600160a01b03166102205260405130906004906103d49061085e565b6001600160a01b0390921682526020820152604001604051809103905ff080158015610402573d5f5f3e3d5ffd5b506001600160a01b03166101e052604051309061041e9061086b565b6001600160a01b039091168152602001604051809103905ff080158015610447573d5f5f3e3d5ffd5b506001600160a01b031661020052600161024052436101c05260608101516101a052737109709ecfa91a80626ff3989d68f67f5b1dd12d3b15156101805260405161049190610878565b604051809103905ff0801580156104aa573d5f5f3e3d5ffd5b50601680546001600160a01b0319166001600160a01b0392909216919091179055600a849055600b83905560408051610120810182525f608080830182815260a080850184905260c0850184905260e0850184905261010085018490529084527f0237797d6a2c04d20d4fa06b74482bd970ccd51a43d9b05b57e9b91fa1ae1cae60208086019182527f2da55666630fdf8594065c377958c827dc1c130dac91f17c6699b53dce60ef75868801908152606080880187815296805260068352965180517f54cdd369e4e8a8515e52ca72ec816c2101831ad1f18bf44102ed171459c9b4f855808301517f54cdd369e4e8a8515e52ca72ec816c2101831ad1f18bf44102ed171459c9b4f955808901517f54cdd369e4e8a8515e52ca72ec816c2101831ad1f18bf44102ed171459c9b4fa55808801517f54cdd369e4e8a8515e52ca72ec816c2101831ad1f18bf44102ed171459c9b4fb558501517f54cdd369e4e8a8515e52ca72ec816c2101831ad1f18bf44102ed171459c9b4fc5591517f54cdd369e4e8a8515e52ca72ec816c2101831ad1f18bf44102ed171459c9b4fd5590517f54cdd369e4e8a8515e52ca72ec816c2101831ad1f18bf44102ed171459c9b4fe5592517f54cdd369e4e8a8515e52ca72ec816c2101831ad1f18bf44102ed171459c9b4ff5584519081018552633b9aca00938101938452600191810191909152918252825180840184524881529251631c02c2d360e11b8152737109709ecfa91a80626ff3989d68f67f5b1dd12d6004820152919283820192909182019073__$a4c28011a2e5925604ad1989bc2650e6d7$__9063380585a690602401602060405180830381865af4158015610725573d5f5f3e3d5ffd5b505050506040513d601f19601f8201168201806040525081019061074991906109ce565b90528152600560209182015281518051600c55810151600d55818101518051600e550151600f556040015160105550610b7b95505050505050565b5f60208351101561079f5761079883610807565b90506107b0565b816107aa8482610a69565b5060ff90505b92915050565b600280546001600160a01b038381166001600160a01b0319831681179093556040519116919082907f8be0079c531659141344cd1fd0a4f28419497f9722a3daafe3b4186f6b6457e0905f90a35050565b5f5f829050601f81511115610831578260405163305a27a960e01b81526004016101769190610b23565b805161083c82610b58565b179392505050565b61125e806168f883390190565b610a1480617b5683390190565b610f778061856a83390190565b610a36806194e183390190565b61017380619f1783390190565b6001600160a01b0381168114610899575f5ffd5b50565b634e487b7160e01b5f52604160045260245ffd5b5f5f5f5f5f5f5f8789036101a08112156108c8575f5ffd5b88516108d381610885565b60208a01519098506108e481610885565b60408a01519097506108f581610885565b60608a015160808b015160a08c0151929850909650945061091581610885565b925060e060bf1982011215610928575f5ffd5b5060405160e081016001600160401b038111828210171561094b5761094b61089c565b604090815260c08a810151835260e08b015160208401526101008b0151918301919091526101208a015160608301526101408a015160808301526101608a015160a08301526101809099015198810198909852509497939650919490939192565b5f602082840312156109bc575f5ffd5b81516109c781610885565b9392505050565b5f602082840312156109de575f5ffd5b5051919050565b600181811c908216806109f957607f821691505b602082108103610a1757634e487b7160e01b5f52602260045260245ffd5b50919050565b601f821115610a6457805f5260205f20601f840160051c81016020851015610a425750805b601f840160051c820191505b81811015610a61575f8155600101610a4e565b50505b505050565b81516001600160401b03811115610a8257610a8261089c565b610a9681610a9084546109e5565b84610a1d565b6020601f821160018114610ac8575f8315610ab15750848201515b5f19600385901b1c1916600184901b178455610a61565b5f84815260208120601f198516915b82811015610af75787850151825560209485019460019092019101610ad7565b5084821015610b1457868401515f19600387901b60f8161c191681555b50505050600190811b01905550565b602081525f82518060208401528060208501604085015e5f604082850101526040601f19601f83011684010191505092915050565b80516020808301519190811015610a17575f1960209190910360031b1b16919050565b60805160a05160c05160e05161010051610120516101405161016051610180516101a0516101c0516101e05161020051610220516102405161026051610280516102a051615c2b610ccd5f395f81816107580152612c4301525f81816109ba015281816113a60152818161154f0152612c2101525f81816105a60152818161130f0152818161149001528181612bff015261349d01525f8181610ce9015261346f01525f8181610b3b015281816117d801528181611d880152612bdd01525f81816105e5015261122101525f8181610af1015261115f01525f61091501525f81816106f1015281816117b20152612dd401525f610c9401525f8181610a88015281816116c1015281816124cd015281816129f50152818161306201526138ad01525f613a7601525f613a4a01525f613f6001525f613f3801525f613e9301525f613ebd01525f613ee70152615c2b5ff3fe608060405234801561000f575f5ffd5b50600436106104d2575f3560e01c80638da5cb5b11610284578063c001ab8211610161578063dc1bb8f4116100d5578063f1b98cea1161008f578063f1b98cea14610c8f578063f2fde38b14610cb6578063f7a0572b14610cc9578063f85d4eaa14610cd1578063ffa1ad7414610ce4578063ffdd5cf114610d0b575f5ffd5b8063dc1bb8f414610c16578063ddf8d65114610c29578063e3380b7914610c63578063e7142f7c14610c6b578063ede57c3414610c74578063ee3b8dc214610c7c575f5ffd5b8063d03b2bae11610126578063d03b2bae14610bd0578063d0c80f1314610be3578063d0f1be4914610beb578063d3c576d814610bfe578063d8e3784c14610c06578063d9bbd27814610c0e575f5ffd5b8063c001ab8214610b78578063c27f08b514610b8e578063c377834314610ba1578063c4014c1214610ba9578063c9d1e01214610bbd575f5ffd5b8063a575fcdc116101f8578063b85e881d116101bd578063b85e881d14610b13578063b8f3159014610b26578063b97dd9e214610b2e578063b980240514610b36578063b9d0916314610b5d578063bece308a14610b70575f5ffd5b8063a575fcdc14610a83578063a7f8e64614610aaa578063a9a1c6f414610abd578063b67d057b14610ae4578063b701069714610aec575f5ffd5b806399d706041161024957806399d7060414610a0b5780639e0fedd814610a1e5780639f2b315414610a405780639fa5048014610a48578063a011f6a914610a68578063a0e6fc8714610a70575f5ffd5b80638da5cb5b146109a45780638de728e4146109b55780638f2a2b26146109dc57806390a3b386146109fb578063966ab4ee14610a03575f5ffd5b806353a16024116103b2578063715018a611610326578063754eddb7116102eb578063754eddb7146108fd57806379ed8ead146109105780637afeed281461093757806380edb5bd1461094a57806384b0196e1461095d57806388e4a07314610978575f5ffd5b8063715018a6146108ae578063723d8e96146108b6578063725e494e146108ca5780637468582f146108dd57806374af185e146108ea575f5ffd5b806361de7ac61161037757806361de7ac61461082a57806363b03d331461083d57806368bdcbc514610850578063694223ac1461086357806369457a6f1461087b57806370192e561461088e575f5ffd5b806353a16024146107a55780635aa51600146107b85780635d3ea8f1146107cb5780635dc0ff94146107d35780635f82401f1461080a575f5ffd5b806336185aa11161044957806342d21ef71161040e57806342d21ef7146107135780634800d97f1461075357806348b9e57b1461077a5780634a177008146107825780634ed7e43514610795578063508ac49b1461079d575f5ffd5b806336185aa1146106b65780633777e863146106c9578063386f56fc146106dc5780633b10244b146106e45780633ceac569146106ec575f5ffd5b80631811f40b1161049a5780631811f40b146105a15780631b142ea7146105e05780631cfe2878146106075780632716c7371461062757806333f9acb41461063a57806335f3892014610662575f5ffd5b80630284c3f5146104d657806302a21460146104eb57806302fb4d851461051357806304c0756914610526578063164552d81461058e575b5f5ffd5b6104e96104e43660046141d7565b610d2b565b005b6008545f908152600660205260409020600501545b6040519081526020015b60405180910390f35b6104e9610521366004614225565b610e12565b61053961053436600461424f565b610e84565b60408051825180518252602080820151818401528184015183850152606080830151818501526080928301519284019290925284015160a08301529183015160c082015291015160e08201526101000161050a565b6104e961059c3660046144a4565b610f2e565b6105c87f000000000000000000000000000000000000000000000000000000000000000081565b6040516001600160a01b03909116815260200161050a565b6105c87f000000000000000000000000000000000000000000000000000000000000000081565b61061a61061536600461424f565b611604565b60405161050a9190614564565b6104e96106353660046145c0565b61172f565b61064d6106483660046145ec565b611835565b6040805192835260208301919091520161050a565b61066a611965565b60405161050a91908151815260208083015190820152604080830151908201526060808301516001600160a01b0390811691830191909152608092830151169181019190915260a00190565b6104e96106c436600461460c565b6119e5565b6105006106d736600461424f565b611a80565b610500611aa7565b6105c8611b1c565b6105007f000000000000000000000000000000000000000000000000000000000000000081565b61072661072136600461424f565b611b2b565b604080519687526020870195909552938501929092526060840152608083015260a082015260c00161050a565b6105c87f000000000000000000000000000000000000000000000000000000000000000081565b600854610500565b6104e96107903660046146d4565b611b87565b61061a611bf1565b6104e9611c69565b6104e96107b33660046146ef565b611d5e565b6104e96107c636600461424f565b611f26565b610500611f33565b6107e66107e13660046146d4565b611f4c565b60408051825181526020928301516001600160a01b0316928101929092520161050a565b61081d61081836600461424f565b612008565b60405161050a919061470a565b6105c86108383660046146d4565b61205b565b6104e961084b366004614721565b6120ef565b6104e961085e36600461424f565b612106565b61086b612113565b604051901515815260200161050a565b61061a61088936600461424f565b61211d565b6108a161089c3660046147f3565b612186565b60405161050a9190614821565b6104e9612293565b5f516020615bd65f395f51905f5254610500565b6104e96108d83660046146d4565b6122a6565b60055461086b9060ff1681565b6105006108f836600461424f565b6122d0565b61050061090b3660046147f3565b6122da565b6105007f000000000000000000000000000000000000000000000000000000000000000081565b61050061094536600461424f565b6122f4565b61050061095836600461424f565b612308565b610965612358565b60405161050a9796959493929190614888565b6040805180820182525f808252602091820152815180830190925260085482526009549082015261081d565b6002546001600160a01b03166105c8565b6105c87f000000000000000000000000000000000000000000000000000000000000000081565b6105006109ea36600461424f565b5f9081526007602052604090205490565b61050061239a565b61061a612411565b6105c8610a1936600461424f565b612535565b610a31610a2c36600461491e565b612642565b60405161050a93929190614996565b6104e96126d9565b610a5b610a563660046149ba565b612706565b60405161050a9190614aa8565b6105c861279f565b6104e9610a7e36600461424f565b61281a565b6105007f000000000000000000000000000000000000000000000000000000000000000081565b6105c8610ab836600461424f565b612830565b6105c87f885cb69240a935d632d79c317109709ecfa91a80626ff3989d68f67f5b1dd12d81565b600954610500565b6105c87f000000000000000000000000000000000000000000000000000000000000000081565b610500610b21366004614acb565b61287c565b61050061288e565b6105006128d7565b6105c87f000000000000000000000000000000000000000000000000000000000000000081565b610500610b6b36600461424f565b6128e1565b6105006128eb565b6105c86b4355415548584943414c4c4960401b81565b6105c8610b9c36600461424f565b612924565b610500612a5b565b5f516020615b965f395f51905f5254610500565b610500610bcb36600461424f565b612a78565b610500610bde36600461424f565b612a82565b6105c8612a8c565b6104e9610bf9366004614b2a565b612b0a565b610500600581565b610500612cf3565b610500612cfd565b61086b610c2436600461424f565b612d69565b610c3c610c3736600461424f565b612e5d565b6040805182516001600160a01b03908116825260209384015116928101929092520161050a565b6104e9612f67565b6105006103e881565b6105006130e3565b61086b610c8a366004614b61565b6130f1565b61086b7f000000000000000000000000000000000000000000000000000000000000000081565b6104e9610cc43660046146d4565b61317c565b610500600281565b6104e9610cdf366004614b8d565b6131b9565b6105007f000000000000000000000000000000000000000000000000000000000000000081565b610d1e610d193660046146d4565b61325c565b60405161050a9190614c85565b610d33612f67565b6001600160a01b03841615801590610d5357506001600160a01b03831615155b84849091610d8c5760405163533169bd60e01b81526001600160a01b039283166004820152911660248201526044015b60405180910390fd5b5050604051630284c3f560e01b81526001600160a01b0380861660048301528085166024830152831660448201526064810182905273__$f6f607895dae8739569bdad20c7163daf4$__90630284c3f5906084015f6040518083038186803b158015610df6575f5ffd5b505af4158015610e08573d5f5f3e3d5ffd5b5050505050505050565b6040516302fb4d8560e01b81526001600160a01b03831660048201526024810182905273__$f6f607895dae8739569bdad20c7163daf4$__906302fb4d85906044015f6040518083038186803b158015610e6a575f5ffd5b505af4158015610e7c573d5f5f3e3d5ffd5b505050505050565b610e8c614105565b6008548281811115610eba5760405163e5edf84760e01b815260048101929092526024820152604401610d83565b5050505f90815260066020818152604092839020835161012081018552815460808201908152600183015460a0830152600283015460c0830152600383015460e083015260048301546101008301528152600582015492810192909252918201549281019290925260070154606082015290565b610f36612113565b15610f4357610f43613373565b610f4b611c69565b60055460405163f711e6c360e01b81525f918291829173__$a4c28011a2e5925604ad1989bc2650e6d7$__9163f711e6c391610f93918991899160ff90911690600401614cfd565b5f60405180830381865af4158015610fad573d5f5f3e3d5ffd5b505050506040513d5f823e601f3d908101601f19168201604052610fd49190810190614d7d565b919450925090505f73__$a4c28011a2e5925604ad1989bc2650e6d7$__6364daf9d661100360808d018d614dc8565b6040518363ffffffff1660e01b8152600401611020929190614e0a565b61036060405180830381865af415801561103c573d5f5f3e3d5ffd5b505050506040513d601f19601f820116820180604052508101906110609190614f95565b905061106a612f67565b5f611076426001612186565b90505f611082826133e6565b90506110b9838c61109b8f61109690615113565b6133f0565b604080518082019091525f8082526020820152429086908b90613422565b600880545f919082906110cb906151cd565b91905081905590506110e18d82855f015161354e565b5f8281526006602081815260408084208551805182558084015160018301558083015160028301556060808201516003840155608090910151600480840191909155878501516005840155878401519583019590955590950151600795860155939052828220889055915163483f31ab60e01b8152918201839052907f00000000000000000000000000000000000000000000000000000000000000006001600160a01b03169063483f31ab906024016020604051808303815f875af11580156111ad573d5f5f3e3d5ffd5b505050506040513d601f19601f820116820180604052508101906111d191906151e5565b60208601516040015190915081908082146112085760405163cd6f423360e01b815260048101929092526024820152604401610d83565b5050505f61121c85602001515f0151613681565b5090507f00000000000000000000000000000000000000000000000000000000000000006001600160a01b0316633d96c2c98387602001516060015184600161126591906151fc565b6040516001600160e01b031960e086901b1681526004810193909352602483019190915260448201526064015f604051808303815f87803b1580156112a8575f5ffd5b505af11580156112ba573d5f5f3e3d5ffd5b505050508d5f0135827f9ad613a7ff46b97e0f732b31118d43f39c9ca017bed1efe739b70b06253835898a6040516112f29190614aa8565b60405180910390a360175482116115f45761130c82613761565b5f7f00000000000000000000000000000000000000000000000000000000000000006001600160a01b031663026cd0dc6040518163ffffffff1660e01b8152600401602060405180830381865afa158015611369573d5f5f3e3d5ffd5b505050506040513d601f19601f8201168201806040525081019061138d919061520f565b6001600160a01b0316306001600160a01b03161490505f7f00000000000000000000000000000000000000000000000000000000000000006001600160a01b031663026cd0dc6040518163ffffffff1660e01b8152600401602060405180830381865afa158015611400573d5f5f3e3d5ffd5b505050506040513d601f19601f82011682018060405250810190611424919061520f565b6001600160a01b0316306001600160a01b03161490508180156114575750606087015160a001516001600160a01b031615155b801561146657505f8760800151115b1561150557606087015160a0015160808801516040516348fef59560e01b81526001600160a01b037f000000000000000000000000000000000000000000000000000000000000000016926348fef595926114d7926004016001600160a01b03929092168252602082015260400190565b5f604051808303815f87803b1580156114ee575f5ffd5b505af1158015611500573d5f5f3e3d5ffd5b505050505b8080156115225750606087015160a001516001600160a01b031615155b156115bd57606087015160a00151604051630f41a04d60e11b81526001600160a01b0391821660048201527f000000000000000000000000000000000000000000000000000000000000000090911690631e83409a906024016020604051808303815f875af1158015611597573d5f5f3e3d5ffd5b505050506040513d601f19601f820116820180604052508101906115bb91906151e5565b505b6040516410d211505560da1b9085907fd989775bfca9340a9fcb6a458bef402a5defb0d44211ee8d61a5974e9ad7379b905f90a350505b5050505050505050505050505050565b606073__$e9020b12d3d7a8dada1f2211c57e4d352c$__63b87cc28d600373__$f6f607895dae8739569bdad20c7163daf4$__633408f73a6040518163ffffffff1660e01b8152600401602060405180830381865af4158015611669573d5f5f3e3d5ffd5b505050506040513d601f19601f8201168201806040525081019061168d91906151e5565b61169686612a78565b6040516001600160e01b031960e086901b1681526004810193909352602483019190915260448201527f000000000000000000000000000000000000000000000000000000000000000060648201526084015f60405180830381865af4158015611702573d5f5f3e3d5ffd5b505050506040513d5f823e601f3d908101601f19168201604052611729919081019061522a565b92915050565b5f611739836128e1565b90505f61174584612924565b90505f6117506128eb565b90505f61175c846137f8565b90505f611771610b2136889003880188614acb565b604051631bff461d60e21b815290915073__$a4c28011a2e5925604ad1989bc2650e6d7$__90636ffd1874906118009088908890889088908d9089906011907f0000000000000000000000000000000000000000000000000000000000000000906103e8907f0000000000000000000000000000000000000000000000000000000000000000906004016152b9565b5f6040518083038186803b158015611816575f5ffd5b505af4158015611828573d5f5f3e3d5ffd5b5050505050505050505050565b5f5f5f611841856128e1565b90505f61184d86612d69565b6118595760085461185d565b6009545b5f81815260066020526040902060070154909150808380821061189c5760405163083510bd60e41b815260048101929092526024820152604401610d83565b50505f8281526006602052604090206005015480878082146118da57604051635b41520760e11b815260048101929092526024820152604401610d83565b5050604080515f8082526020820190925281611923565b604080516080810182525f8082526020808301829052928201819052606082015282525f199092019101816118f15790505b50604080518082019091526001808252602082015290915061194786838b84613813565b856119538660016151fc565b975097505050505050505b9250929050565b6119a46040518060a001604052805f81526020015f81526020015f81526020015f6001600160a01b031681526020015f6001600160a01b031681525090565b506040805160a08101825260115481526012546020820152601354918101919091526014546001600160a01b03908116606083015260155416608082015290565b60405163326d7ceb60e11b8152611a779073__$a4c28011a2e5925604ad1989bc2650e6d7$__906364daf9d690611a22908b908b90600401614e0a565b61036060405180830381865af4158015611a3e573d5f5f3e3d5ffd5b505050506040513d601f19601f82011682018060405250810190611a629190614f95565b868686611a708860016122da565b8787613422565b50505050505050565b6008545f90821115611a92575f611729565b505f9081526006602052604090206005015490565b5f73__$f6f607895dae8739569bdad20c7163daf4$__633408f73a6040518163ffffffff1660e01b8152600401602060405180830381865af4158015611aef573d5f5f3e3d5ffd5b505050506040513d601f19601f82011682018060405250810190611b1391906151e5565b60030154905090565b5f611b2642612924565b905090565b6009545f8181526006602052604080822060059081015460085480855292842090910154929384938493849384938493909290611b678b611a80565b600954611b7390612308565b949c939b5091995097509550909350915050565b604051630942ee0160e31b81526001600160a01b038216600482015273__$f6f607895dae8739569bdad20c7163daf4$__90634a177008906024015f6040518083038186803b158015611bd8575f5ffd5b505af4158015611bea573d5f5f3e3d5ffd5b5050505050565b6060611b2673__$f6f607895dae8739569bdad20c7163daf4$__633408f73a6040518163ffffffff1660e01b8152600401602060405180830381865af4158015611c3d573d5f5f3e3d5ffd5b505050506040513d601f19601f82011682018060405250810190611c6191906151e5565b600401613922565b5f611c72612cf3565b6010549091505f90611c8f90611c8a6005600261392e565b613939565b905081811115611c9d575050565b600e54600c55600f54600d556040805180820182524881529051631c02c2d360e11b8152737109709ecfa91a80626ff3989d68f67f5b1dd12d6004820152602082019073__$a4c28011a2e5925604ad1989bc2650e6d7$__9063380585a690602401602060405180830381865af4158015611d1a573d5f5f3e3d5ffd5b505050506040513d601f19601f82011682018060405250810190611d3e91906151e5565b90528051600e5560200151600f55611d57826002613939565b6010555050565b611d68428261172f565b5f611d71612cf3565b90505f611d7c6128eb565b90506001600160a01b037f000000000000000000000000000000000000000000000000000000000000000016631c87b6ac611dbd60808601606087016146d4565b6040805160e084901b6001600160e01b03191681526001600160a01b03909216600483015286013560248201526044015f604051808303815f87803b158015611e04575f5ffd5b505af1158015611e16573d5f5f3e3d5ffd5b505050506040518060a00160405280828152602001845f016080016020810190611e4091906153ad565b63ffffffff168152604080860135602083015201611e6460808601606087016146d4565b6001600160a01b0390811682523360209283018190528351601155918301516012556040830151601355606080840151601480549184166001600160a01b031992831617905560809485015160158054919094169116179091559091611ecf919086019086016146d4565b6001600160a01b0316827f04eee47b3fe9e6bcdec9370371d65501f3fb3f44d2fbf49c2b6834635a7253df865f016040013586604051611f19929190918252602082015260400190565b60405180910390a4505050565b611f2e613944565b600a55565b5f5f516020615bd65f395f51905f525b60020154905090565b604080518082019091525f808252602082015273__$f6f607895dae8739569bdad20c7163daf4$__633408f73a6040518163ffffffff1660e01b8152600401602060405180830381865af4158015611fa6573d5f5f3e3d5ffd5b505050506040513d601f19601f82011682018060405250810190611fca91906151e5565b6001600160a01b039283165f908152600791909101602090815260409182902082518084019093528054835260010154909316928101929092525090565b604080518082019091525f808252602082015261202e612027836128e1565b6010541190565b61203957600e61203c565b600c5b6040805180820190915281548152600190910154602082015292915050565b5f73__$f6f607895dae8739569bdad20c7163daf4$__633408f73a6040518163ffffffff1660e01b8152600401602060405180830381865af41580156120a3573d5f5f3e3d5ffd5b505050506040513d601f19601f820116820180604052508101906120c791906151e5565b6001600160a01b039283165f9081526006919091016020526040902060020154909116919050565b6120fd878787878787610f2e565b611a7781611d5e565b61210e613944565b600b55565b5f611b2642612d69565b5f8181526003602090815260409182902080548351818402810184019094528084526060939283018282801561217a57602002820191905f5260205f20905b81546001600160a01b0316815260019091019060200180831161215c575b50505050509050919050565b6121b36040518060a001604052805f81526020015f81526020015f81526020015f81526020015f81525090565b5f6121bd84612d69565b6121c9576008546121cd565b6009545b5f81815260066020526040902090915073__$a4c28011a2e5925604ad1989bc2650e6d7$__906332b68a7e9061220287612008565b8661221157633b9aca00612219565b612219612a5b565b5f516020615bb65f395f51905f52546040516001600160e01b031960e087901b16815261224c94939291906004016153c8565b60a060405180830381865af4158015612267573d5f5f3e3d5ffd5b505050506040513d601f19601f8201168201806040525081019061228b91906153f8565b949350505050565b61229b613944565b6122a45f613971565b565b6122ae613944565b601680546001600160a01b0319166001600160a01b0392909216919091179055565b5f611729826139c2565b5f6122ed6122e88484612186565b6133e6565b9392505050565b5f611729600361230384612a78565b6139dd565b6008545f9082818111156123385760405163e5edf84760e01b815260048101929092526024820152604401610d83565b50505f8281526006602052604090206007015461172990610bcb90612a82565b5f6060805f5f5f6060612369613a43565b612371613a6f565b604080515f80825260208201909252600f60f81b9b939a50919850469750309650945092509050565b5f611b2673__$f6f607895dae8739569bdad20c7163daf4$__633408f73a6040518163ffffffff1660e01b8152600401602060405180830381865af41580156123e5573d5f5f3e3d5ffd5b505050506040513d601f19601f8201168201806040525081019061240991906151e5565b600401613a9c565b606073__$e9020b12d3d7a8dada1f2211c57e4d352c$__63b87cc28d600373__$f6f607895dae8739569bdad20c7163daf4$__633408f73a6040518163ffffffff1660e01b8152600401602060405180830381865af4158015612476573d5f5f3e3d5ffd5b505050506040513d601f19601f8201168201806040525081019061249a91906151e5565b6124a26128d7565b6040516001600160e01b031960e086901b1681526004810193909352602483019190915260448201527f000000000000000000000000000000000000000000000000000000000000000060648201526084015f60405180830381865af415801561250e573d5f5f3e3d5ffd5b505050506040513d5f823e601f3d908101601f19168201604052611b26919081019061522a565b5f73__$f6f607895dae8739569bdad20c7163daf4$__633408f73a6040518163ffffffff1660e01b8152600401602060405180830381865af415801561257d573d5f5f3e3d5ffd5b505050506040513d601f19601f820116820180604052508101906125a191906151e5565b6006015f61261d8473__$f6f607895dae8739569bdad20c7163daf4$__633408f73a6040518163ffffffff1660e01b8152600401602060405180830381865af41580156125f0573d5f5f3e3d5ffd5b505050506040513d601f19601f8201168201806040525081019061261491906151e5565b60040190613aa5565b6001600160a01b03908116825260208201929092526040015f20600201541692915050565b60055460405163f711e6c360e01b81526060915f91829173__$a4c28011a2e5925604ad1989bc2650e6d7$__9163f711e6c39161268b918991899160ff90911690600401614cfd565b5f60405180830381865af41580156126a5573d5f5f3e3d5ffd5b505050506040513d5f823e601f3d908101601f191682016040526126cc9190810190614d7d565b9250925092509250925092565b6126e1612113565b6126fe5760405163850defd360e01b815260040160405180910390fd5b6122a4613373565b60405163dfc5c62360e01b815260609073__$a4c28011a2e5925604ad1989bc2650e6d7$__9063dfc5c62390612751906006908d908d908d908d908d908d908d908d90600401615477565b5f60405180830381865af415801561276b573d5f5f3e3d5ffd5b505050506040513d5f823e601f3d908101601f1916820160405261279291908101906154db565b9998505050505050505050565b5f73__$f6f607895dae8739569bdad20c7163daf4$__633408f73a6040518163ffffffff1660e01b8152600401602060405180830381865af41580156127e7573d5f5f3e3d5ffd5b505050506040513d601f19601f8201168201806040525081019061280b91906151e5565b546001600160a01b0316919050565b612822613944565b61282b81613761565b601755565b5f6117298273__$f6f607895dae8739569bdad20c7163daf4$__633408f73a6040518163ffffffff1660e01b8152600401602060405180830381865af41580156125f0573d5f5f3e3d5ffd5b5f61172961288983613ab0565b613aba565b5f5f6128986128eb565b601154909150811415806128b557506014546001600160a01b0316155b6128d2576040516316562f8560e11b815260040160405180910390fd5b919050565b5f611b2642612a78565b5f61172982613ae6565b6008546009545f9190036129125760405163cbaa395160e01b815260040160405180910390fd5b600954611b26906109589060016151fc565b5f5f61292f836128e1565b90505f61293b826122d0565b905073__$e9020b12d3d7a8dada1f2211c57e4d352c$__63d9e431ce600373__$f6f607895dae8739569bdad20c7163daf4$__633408f73a6040518163ffffffff1660e01b8152600401602060405180830381865af41580156129a0573d5f5f3e3d5ffd5b505050506040513d601f19601f820116820180604052508101906129c491906151e5565b6040516001600160e01b031960e085901b1681526004810192909252602482015260448101859052606481018490527f0000000000000000000000000000000000000000000000000000000000000000608482015260a401602060405180830381865af4158015612a37573d5f5f3e3d5ffd5b505050506040513d601f19601f8201168201806040525081019061228b919061520f565b6008545f90815260066020526040812060010154611b2690613b1c565b5f61172982613b26565b5f61172982613b6b565b5f73__$f6f607895dae8739569bdad20c7163daf4$__633408f73a6040518163ffffffff1660e01b8152600401602060405180830381865af4158015612ad4573d5f5f3e3d5ffd5b505050506040513d601f19601f82011682018060405250810190612af891906151e5565b600101546001600160a01b0316919050565b612b12612113565b15612b1f57612b1f613373565b612b636040518061010001604052805f81526020015f81526020015f81526020015f81526020015f151581526020015f151581526020015f81526020015f81525090565b600954808252612b75908335906151fc565b60208201528051612b8b906109589060016151fc565b60608201526020810151612b9e90612308565b604080830191909152516337770f7b60e01b81525f9073__$a4c28011a2e5925604ad1989bc2650e6d7$__906337770f7b90612c7c90600690879087907f0000000000000000000000000000000000000000000000000000000000000000907f0000000000000000000000000000000000000000000000000000000000000000907f0000000000000000000000000000000000000000000000000000000000000000907f0000000000000000000000000000000000000000000000000000000000000000906b4355415548584943414c4c4960401b9060040161554d565b602060405180830381865af4158015612c97573d5f5f3e3d5ffd5b505050506040513d601f19601f82011682018060405250810190612cbb91906151e5565b60405190915060e08401359082907fd989775bfca9340a9fcb6a458bef402a5defb0d44211ee8d61a5974e9ad7379b905f90a3505050565b5f611b26426128e1565b5f73__$f6f607895dae8739569bdad20c7163daf4$__633408f73a6040518163ffffffff1660e01b8152600401602060405180830381865af4158015612d45573d5f5f3e3d5ffd5b505050506040513d601f19601f82011682018060405250810190611f4391906151e5565b6009546008545f911480612d81575060175460085411155b15612d8d57505f919050565b5f612d97836128e1565b6009549091505f90612dae906109589060016151fc565b90505f612dba82613b9b565b90505f612dfc84612df8612dd285611c8a6001613b9b565b7f0000000000000000000000000000000000000000000000000000000000000000613939565b1190565b90505f612e1185612df885611c8a6002613b9b565b8015612e1e575060115484145b8015612e3457506015546001600160a01b031615155b90508180612e3f5750805b15612e5057505f9695505050505050565b5060019695505050505050565b604080518082019091525f80825260208201525f612ebc8373__$f6f607895dae8739569bdad20c7163daf4$__633408f73a6040518163ffffffff1660e01b8152600401602060405180830381865af41580156125f0573d5f5f3e3d5ffd5b9050604051806040016040528073__$f6f607895dae8739569bdad20c7163daf4$__633408f73a6040518163ffffffff1660e01b8152600401602060405180830381865af4158015612f10573d5f5f3e3d5ffd5b505050506040513d601f19601f82011682018060405250810190612f3491906151e5565b6001600160a01b039384165f81815260069290920160209081526040909220600201549094168252019190915292915050565b5f612f706128d7565b5f81815260036020526040812060018101549293509190036130df57612f976003836139dd565b6001820155612fa582613bb6565b6003600101819055816002018190555073__$e9020b12d3d7a8dada1f2211c57e4d352c$__634229851773__$f6f607895dae8739569bdad20c7163daf4$__633408f73a6040518163ffffffff1660e01b8152600401602060405180830381865af4158015613016573d5f5f3e3d5ffd5b505050506040513d601f19601f8201168201806040525081019061303a91906151e5565b60018401546040516001600160e01b031960e085901b168152600481019290925260248201527f000000000000000000000000000000000000000000000000000000000000000060448201526064015f60405180830381865af41580156130a3573d5f5f3e3d5ffd5b505050506040513d5f823e601f3d908101601f191682016040526130ca919081019061522a565b80516130dd918391602090910190614155565b505b5050565b5f611b2660036123036128d7565b5f6130fa612f67565b60405163771dc6e160e11b81526001600160a01b0380851660048301528316602482015273__$f6f607895dae8739569bdad20c7163daf4$__9063ee3b8dc290604401602060405180830381865af4158015613158573d5f5f3e3d5ffd5b505050506040513d601f19601f820116820180604052508101906122ed9190615700565b613184613944565b6001600160a01b0381166131ad57604051631e4fbdf760e01b81525f6004820152602401610d83565b6131b681613971565b50565b6131c1613944565b5f5b81518110156132535761324b8282815181106131e1576131e16156ec565b60200260200101515f01518383815181106131fe576131fe6156ec565b60200260200101516020015184848151811061321c5761321c6156ec565b60200260200101516040015185858151811061323a5761323a6156ec565b602002602001015160600151610d33565b6001016131c3565b506131b6612f67565b613283604080516080810182525f8082526020820181905291810182905290606082015290565b73__$f6f607895dae8739569bdad20c7163daf4$__633408f73a6040518163ffffffff1660e01b8152600401602060405180830381865af41580156132ca573d5f5f3e3d5ffd5b505050506040513d601f19601f820116820180604052508101906132ee91906151e5565b6001600160a01b038381165f9081526006929092016020908152604092839020835160808101855281548152600182015484169281019290925260028101549283169382019390935291906060830190600160a01b900460ff16600381111561335957613359614c71565b600381111561336a5761336a614c71565b90525092915050565b5f60118190556012819055601355601480546001600160a01b03199081169091556015805490911690556008805460095491829055604080519283526020830182905290917fc78a70f3b27748d5fa327f6a3c1104b9b007d6a80d20c41f7c0dc4543fbdbdcd910160405180910390a150565b5f61172982613bf1565b5f60018260405160200161340592919061571b565b604051602081830303815290604052805190602001209050919050565b5f61342c85612d69565b6134385760085461343c565b6009545b60408051610120810182528a81526020808201899052818301889052606082018790526080820184905260a082018690527f000000000000000000000000000000000000000000000000000000000000000060c08301526001600160a01b037f00000000000000000000000000000000000000000000000000000000000000001660e083015230901b63d03b2bae17821b61010082015290516379514e8560e01b815291925073__$a4c28011a2e5925604ad1989bc2650e6d7$__916379514e859161350d9160069060040161594d565b5f6040518083038186803b158015613523575f5ffd5b505af4158015613535573d5f5f3e3d5ffd5b50505050610e0888606001516060015188888886613c23565b613556614105565b5f6006816135656001876159e5565b81526020019081526020015f205f016040518060a00160405290815f8201548152602001600182015481526020016002820154815260200160038201548152602001600482015481525050905060405180608001604052806040518060a001604052806135d185613cb0565b81526020858101519101906135ea9060608b0135613cd4565b81526020016135fc60808a018a614dc8565b61360d9161028891610268916159f8565b61361691615a1f565b815260608501516020909101906136319060408b0135613cd4565b81526020908101879052908252873582820152870135604082015260600161365c6080880188614dc8565b61366d916101b491610194916159f8565b61367691615a1f565b905295945050505050565b5f5f600283101561369657505f928392509050565b5f60018180805b8715613716578784165f036136c55760019390931b92826136bd816151cd565b93505061369d565b845f036136cf5750815b6136d984896159e5565b5f036136e3578291505b6136ed84896159e5565b975060019390931b9282613700816151cd565b935050848061370e906151cd565b95505061369d565b8460010361372b575096879650945050505050565b5f600161373887846151fc565b61374291906159e5565b90505f6137508460016151fc565b919a91995090975050505050505050565b6009548111801561377457506008548111155b156131b65760098190555f61378882612308565b9050801580613798575060115481115b156130df576040805160a0810182528281525f60208201819052918101829052606081018290523360809091018190526011929092556012819055601355601480546001600160a01b031990811690915560158054909116909117905550565b5f516020615bb65f395f51905f52545f906117299083615a50565b5f61381d856122d0565b905073__$e9020b12d3d7a8dada1f2211c57e4d352c$__6311f3ca4c600373__$f6f607895dae8739569bdad20c7163daf4$__633408f73a6040518163ffffffff1660e01b8152600401602060405180830381865af4158015613882573d5f5f3e3d5ffd5b505050506040513d601f19601f820116820180604052508101906138a691906151e5565b88858989897f00000000000000000000000000000000000000000000000000000000000000006040518963ffffffff1660e01b81526004016138ef989796959493929190615a63565b5f6040518083038186803b158015613905575f5ffd5b505af4158015613917573d5f5f3e3d5ffd5b505050505050505050565b60605f6122ed83613cdf565b5f6122ed82846159e5565b5f6122ed82846151fc565b6002546001600160a01b031633146122a45760405163118cdaa760e01b8152336004820152602401610d83565b600280546001600160a01b038381166001600160a01b0319831681179093556040519116919082907f8be0079c531659141344cd1fd0a4f28419497f9722a3daafe3b4186f6b6457e0905f90a35050565b5f516020615bb65f395f51905f52545f906117299083615b1f565b5f815f036139ed57505f19611729565b5f828152602084905260409020600101548015613a0b579050611729565b835f613a1885600161392e565b81526020019081526020015f20600201549050805f14613a39579050611729565b5050506001015490565b6060611b267f00000000000000000000000000000000000000000000000000000000000000005f613d37565b6060611b267f00000000000000000000000000000000000000000000000000000000000000006001613d37565b5f611729825490565b5f6122ed8383613de0565b5f61172982613e06565b5f611729613ac6613e87565b8360405161190160f01b8152600281019290925260228201526042902090565b5f516020615b965f395f51905f52545f516020615bd65f395f51905f5280545f9290613b1290856159e5565b6122ed9190615b1f565b5f61172982613fb0565b5f516020615b965f395f51905f52545f516020615bb65f395f51905f52545f915f516020615bd65f395f51905f5291613b5f9190615b32565b8154613b1290856159e5565b5f516020615bd65f395f51905f5280545f516020615b965f395f51905f52545f92916122ed91611c8a9086615b32565b5f516020615bb65f395f51905f52545f906117299083615b32565b5f8144604051602001613bd3929190918252602082015260400190565b60408051601f19818403018152919052805160209091012092915050565b5f815f0151826080015183606001518460400151613c0f91906151fc565b613c1991906151fc565b61172991906151fc565b5f613c2d836128e1565b90508086808214613c5a576040516309ba91ff60e01b815260048101929092526024820152604401610d83565b50505f613c69610bcb88612a82565b90505f613c7585612a78565b90508082808214613ca257604051631e36b2f360e11b815260048101929092526024820152604401610d83565b5050610e0888888887613813565b5f6117298260400151835f0151613cc791906151fc565b613cd46305f5e100615b49565b5f6122ed8383613fc6565b6060815f0180548060200260200160405190810160405280929190818152602001828054801561217a57602002820191905f5260205f20905b815481526020019060010190808311613d185750505050509050919050565b606060ff8314613d5157613d4a8361400d565b9050611729565b818054613d5d90615b63565b80601f0160208091040260200160405190810160405280929190818152602001828054613d8990615b63565b8015613dd45780601f10613dab57610100808354040283529160200191613dd4565b820191905f5260205f20905b815481529060010190602001808311613db757829003601f168201915b50505050509050611729565b5f825f018281548110613df557613df56156ec565b905f5260205f200154905092915050565b5f7f87ad602ba7da8fbd0870ea16b81fedb3d066c92bd5549f066c4512db6b28fb9d825f01518360200151846040015185606001518660800151604051602001613405969594939291909586526020860194909452604085019290925260608401526001600160a01b0316608083015263ffffffff1660a082015260c00190565b5f306001600160a01b037f000000000000000000000000000000000000000000000000000000000000000016148015613edf57507f000000000000000000000000000000000000000000000000000000000000000046145b15613f0957507f000000000000000000000000000000000000000000000000000000000000000090565b611b26604080517f8b73c3c69bb8fe3d512ecc4cf759cc79239f7b179b0ffacaa9a75d522b39400f60208201527f0000000000000000000000000000000000000000000000000000000000000000918101919091527f000000000000000000000000000000000000000000000000000000000000000060608201524660808201523060a08201525f9060c00160405160208183030381529060405280519060200120905090565b5f6117296402540be4008364174876e80061404a565b5f5f8212613fe157613fd7826140b5565b613d4a90846151fc565b60ff82901d808301188084111561400457613ffc81856159e5565b915050611729565b505f9392505050565b60605f614019836140de565b6040805160208082528183019092529192505f91906020820181803683375050509182525060208101929092525090565b5f600181806140598588615b32565b90505b80156140a05761406c81836151fc565b91506140788386615b32565b6140828783615b32565b61408c9190615b1f565b90506140996001846151fc565b925061405c565b6140aa8583615b1f565b979650505050505050565b5f5f8212156140da57604051635467221960e11b815260048101839052602401610d83565b5090565b5f60ff8216601f81111561172957604051632cd44ac360e21b815260040160405180910390fd5b604051806080016040528061413d6040518060a001604052805f81526020015f81526020015f81526020015f81526020015f81525090565b81526020015f81526020015f81526020015f81525090565b828054828255905f5260205f209081019282156141a8579160200282015b828111156141a857825182546001600160a01b0319166001600160a01b03909116178255602090920191600190910190614173565b506140da9291505b808211156140da575f81556001016141b0565b6001600160a01b03811681146131b6575f5ffd5b5f5f5f5f608085870312156141ea575f5ffd5b84356141f5816141c3565b93506020850135614205816141c3565b92506040850135614215816141c3565b9396929550929360600135925050565b5f5f60408385031215614236575f5ffd5b8235614241816141c3565b946020939093013593505050565b5f6020828403121561425f575f5ffd5b5035919050565b5f60c08284031215614276575f5ffd5b50919050565b634e487b7160e01b5f52604160045260245ffd5b604051608081016001600160401b03811182821017156142b2576142b261427c565b60405290565b604080519081016001600160401b03811182821017156142b2576142b261427c565b60405160a081016001600160401b03811182821017156142b2576142b261427c565b60405161010081016001600160401b03811182821017156142b2576142b261427c565b60405160c081016001600160401b03811182821017156142b2576142b261427c565b604051601f8201601f191681016001600160401b03811182821017156143695761436961427c565b604052919050565b5f6001600160401b038211156143895761438961427c565b5060051b60200190565b80151581146131b6575f5ffd5b803560ff811681146128d2575f5ffd5b5f82601f8301126143bf575f5ffd5b81356143d26143cd82614371565b614341565b8082825260208201915060208360071b8601019250858311156143f3575f5ffd5b602085015b8381101561445d576080818803121561440f575f5ffd5b614417614290565b813561442281614393565b8152614430602083016143a0565b602082810191909152604083810135908301526060808401359083015290845292909201916080016143f8565b5095945050505050565b5f5f83601f840112614477575f5ffd5b5081356001600160401b0381111561448d575f5ffd5b60208301915083602082850101111561195e575f5ffd5b5f5f5f5f5f5f608087890312156144b9575f5ffd5b86356001600160401b038111156144ce575f5ffd5b6144da89828a01614266565b96505060208701356001600160401b038111156144f5575f5ffd5b61450189828a016143b0565b95505060408701356001600160401b0381111561451c575f5ffd5b61452889828a01614467565b90955093505060608701356001600160401b03811115614546575f5ffd5b61455289828a01614467565b979a9699509497509295939492505050565b602080825282518282018190525f918401906040840190835b818110156145a45783516001600160a01b031683526020938401939092019160010161457d565b509095945050505050565b5f6101208284031215614276575f5ffd5b5f5f61014083850312156145d2575f5ffd5b823591506145e384602085016145af565b90509250929050565b5f5f604083850312156145fd575f5ffd5b50508035926020909101359150565b5f5f5f5f5f5f5f87890360e0811215614623575f5ffd5b88356001600160401b03811115614638575f5ffd5b6146448b828c01614467565b90995097505060208901356001600160401b03811115614662575f5ffd5b61466e8b828c016143b0565b965050604089810135955060608a0135945060808a01359350609f1982011215614696575f5ffd5b5061469f6142b8565b60a08901356146ad81614393565b815260c08901356146bd81614393565b806020830152508091505092959891949750929550565b5f602082840312156146e4575f5ffd5b81356122ed816141c3565b5f6101208284031215614700575f5ffd5b6122ed83836145af565b815181526020808301519082015260408101611729565b5f5f5f5f5f5f5f6101a0888a031215614738575f5ffd5b87356001600160401b0381111561474d575f5ffd5b6147598a828b01614266565b97505060208801356001600160401b03811115614774575f5ffd5b6147808a828b016143b0565b96505060408801356001600160401b0381111561479b575f5ffd5b6147a78a828b01614467565b90965094505060608801356001600160401b038111156147c5575f5ffd5b6147d18a828b01614467565b90945092506147e590508960808a016145af565b905092959891949750929550565b5f5f60408385031215614804575f5ffd5b82359150602083013561481681614393565b809150509250929050565b60a08101611729828480518252602081015160208301526040810151604083015260608101516060830152608081015160808301525050565b5f81518084528060208401602086015e5f602082860101526020601f19601f83011685010191505092915050565b60ff60f81b8816815260e060208201525f6148a660e083018961485a565b82810360408401526148b8818961485a565b606084018890526001600160a01b038716608085015260a0840186905283810360c0850152845180825260208087019350909101905f5b8181101561490d5783518352602093840193909201916001016148ef565b50909b9a5050505050505050505050565b5f5f6020838503121561492f575f5ffd5b82356001600160401b03811115614944575f5ffd5b61495085828601614467565b90969095509350505050565b5f8151808452602084019350602083015f5b8281101561498c57815186526020958601959091019060010161496e565b5093949350505050565b606081525f6149a8606083018661495c565b60208301949094525060400152919050565b5f5f5f5f5f5f5f5f610160898b0312156149d2575f5ffd5b8835975061010089018a8111156149e7575f5ffd5b60208a019750356001600160401b03811115614a01575f5ffd5b8901601f81018b13614a11575f5ffd5b80356001600160401b03811115614a26575f5ffd5b8b60208260051b8401011115614a3a575f5ffd5b602091909101965094506101208901356001600160401b03811115614a5d575f5ffd5b614a698b828c01614467565b9095509350506101408901356001600160401b03811115614a88575f5ffd5b614a948b828c01614467565b999c989b5096995094979396929594505050565b602081525f6122ed602083018461495c565b63ffffffff811681146131b6575f5ffd5b5f60a0828403128015614adc575f5ffd5b50614ae56142da565b8235815260208084013590820152604080840135908201526060830135614b0b816141c3565b60608201526080830135614b1e81614aba565b60808201529392505050565b5f60208284031215614b3a575f5ffd5b81356001600160401b03811115614b4f575f5ffd5b820161018081850312156122ed575f5ffd5b5f5f60408385031215614b72575f5ffd5b8235614b7d816141c3565b91506020830135614816816141c3565b5f60208284031215614b9d575f5ffd5b81356001600160401b03811115614bb2575f5ffd5b8201601f81018413614bc2575f5ffd5b8035614bd06143cd82614371565b8082825260208201915060208360071b850101925086831115614bf1575f5ffd5b6020840193505b82841015614c675760808488031215614c0f575f5ffd5b614c17614290565b8435614c22816141c3565b81526020850135614c32816141c3565b60208201526040850135614c45816141c3565b6040820152606085810135908201528252608090930192602090910190614bf8565b9695505050505050565b634e487b7160e01b5f52602160045260245ffd5b815181526020808301516001600160a01b0390811691830191909152604080840151909116908201526060820151608082019060048110614cc857614cc8614c71565b8060608401525092915050565b81835281816020850137505f828201602090810191909152601f909101601f19169091010190565b604081525f614d10604083018587614cd5565b90508215156020830152949350505050565b5f82601f830112614d31575f5ffd5b8151614d3f6143cd82614371565b8082825260208201915060208360051b860101925085831115614d60575f5ffd5b602085015b8381101561445d578051835260209283019201614d65565b5f5f5f60608486031215614d8f575f5ffd5b83516001600160401b03811115614da4575f5ffd5b614db086828701614d22565b60208601516040909601519097959650949350505050565b5f5f8335601e19843603018112614ddd575f5ffd5b8301803591506001600160401b03821115614df6575f5ffd5b60200191503681900382131561195e575f5ffd5b602081525f61228b602083018486614cd5565b5f60408284031215614e2d575f5ffd5b614e356142b8565b825181526020830151909150614e4a81614aba565b602082015292915050565b5f818303610140811215614e67575f5ffd5b614e6f6142b8565b9150614e7b8484614e1d565b8252610100603f1982011215614e8f575f5ffd5b50614e98614290565b614ea58460408501614e1d565b8152614eb48460808501614e1d565b6020820152614ec68460c08501614e1d565b6040820152614ed9846101008501614e1d565b6060820152602082015292915050565b5f60408284031215614ef9575f5ffd5b614f016142b8565b825181526020928301519281019290925250919050565b5f6101208284031215614f29575f5ffd5b614f316142fc565b825181526020808401519082015260408084015190820152606080840151908201526080808401519082015260a0830151909150614f6e816141c3565b60a082015260c08281015190820152614f8a8360e08401614ee9565b60e082015292915050565b5f81830361036081128015614fa8575f5ffd5b50614fb161431f565b614fbb8585614e1d565b81526080603f1983011215614fce575f5ffd5b614fd6614290565b604085810151825260608087015160208085019190915260808801519284019290925260a087015190830152820181905291506150168560c08601614e55565b6040820152615029856102008601614f18565b606082015261032084015160808201526103409093015160a0840152509092915050565b5f82601f83011261505c575f5ffd5b81356001600160401b038111156150755761507561427c565b615088601f8201601f1916602001614341565b81815284602083860101111561509c575f5ffd5b816020850160208301375f918101602001919091529392505050565b5f82601f8301126150c7575f5ffd5b81356150d56143cd82614371565b8082825260208201915060208360051b8601019250858311156150f6575f5ffd5b602085015b8381101561445d5780358352602092830192016150fb565b5f81360360c0811215615124575f5ffd5b61512c6142da565b83358152602080850135908201526040603f198301121561514b575f5ffd5b6151536142b8565b604085810135825260608601356020830152820152608084013591506001600160401b03821115615182575f5ffd5b61518e3683860161504d565b606082015260a084013591506001600160401b038211156151ad575f5ffd5b614b1e368386016150b8565b634e487b7160e01b5f52601160045260245ffd5b5f600182016151de576151de6151b9565b5060010190565b5f602082840312156151f5575f5ffd5b5051919050565b80820180821115611729576117296151b9565b5f6020828403121561521f575f5ffd5b81516122ed816141c3565b5f6020828403121561523a575f5ffd5b81516001600160401b0381111561524f575f5ffd5b8201601f8101841361525f575f5ffd5b805161526d6143cd82614371565b8082825260208201915060208360051b85010192508683111561528e575f5ffd5b6020840193505b82841015614c675783516152a8816141c3565b825260209384019390910190615295565b8a81526001600160a01b038a1660208083019190915260408083018b905260608084018b9052893560808501529189013560a084015288013560c0830152610240820190880135615309816141c3565b6001600160a01b031660e0830152608088013561532581614aba565b63ffffffff1661010083015260a088013561533f81614393565b151561012083015260ff61535560c08a016143a0565b1661014083015260e0880135610160830152610100909701356101808201526101a08101959095526101c08501939093526101e08401919091526102008301526001600160a01b031661022090910152949350505050565b5f602082840312156153bd575f5ffd5b81356122ed81614aba565b84815260a081016153e6602083018680518252602090810151910152565b60608201939093526080015292915050565b5f60a0828403128015615409575f5ffd5b506154126142da565b825181526020808401519082015260408084015190820152606080840151908201526080928301519281019290925250919050565b8183525f6001600160fb1b0383111561545e575f5ffd5b8260051b80836020870137939093016020019392505050565b89815288602082015260e08860408301376101806101208201525f6154a16101808301888a615447565b8281036101408401526154b5818789614cd5565b90508281036101608401526154cb818587614cd5565b9c9b505050505050505050505050565b5f602082840312156154eb575f5ffd5b81516001600160401b03811115615500575f5ffd5b61228b84828501614d22565b5f5f8335601e19843603018112615521575f5ffd5b83016020810192503590506001600160401b0381111561553f575f5ffd5b80360382131561195e575f5ffd5b8881526101e060208201525f5f89359050806101e08401525060e060208a01610200840137610100890135601e198a3603018112615589575f5ffd5b89016020810190356001600160401b038111156155a4575f5ffd5b8060051b36038213156155b5575f5ffd5b6101806102e08501526155cd61036085018284615447565b9150506155de6101208b018b61550c565b8483036101df19016103008601526155f7838284614cd5565b925050506156096101408b018b61550c565b8483036101df1901610320860152615622838284614cd5565b925050506156346101608b018b61550c565b8483036101df190161034086015261564d838284614cd5565b93505050506156ac60408301898051825260208101516020830152604081015160408301526060810151606083015260808101511515608083015260a0810151151560a083015260c081015160c083015260e081015160e08301525050565b6001600160a01b039687166101408301529486166101608201529285166101808401529084166101a08301529092166101c0909201919091529392505050565b634e487b7160e01b5f52603260045260245ffd5b5f60208284031215615710575f5ffd5b81516122ed81614393565b5f6002841061572c5761572c614c71565b838252604060208301528251604083015260208301516060830152604083015180516080840152602081015160a084015250606083015160c08084015261577761010084018261485a565b6080850151848203603f190160e08601528051808352602091820193505f9291909101905b808310156157bf578351825260208201915060208401935060018301925061579c565b509695505050505050565b6157e58282518051825260209081015163ffffffff16910152565b60208101516158086040840182518051825260209081015163ffffffff16910152565b602081810151805160808601529081015163ffffffff1660a0850152506040810151805160c0850152602081015163ffffffff1660e085015250606001518051610100840152602081015163ffffffff166101208401526130dd565b805182526020810151602083015260408101516040830152606081015160608301526080810151608083015260018060a01b0360a08201511660a083015260c081015160c083015260e08101516130dd60e084018280518252602090810151910152565b6158e38282518051825260209081015163ffffffff16910152565b6020810151805160408401526020810151606084015260408101516080840152606081015160a084015250604081015161592060c08401826157ca565b506060810151615934610200840182615864565b50608081015161032083015260a0015161034090910152565b5f6104a0820190506159608285516158c8565b602084810151610360840152604085015161038084015260608501516103a084015260808501516103c084015260a0850151805115156103e08501520151151561040083015260c084015161042083015260e08401516001600160a01b03166104408301526101009093015167ffffffffffffffff1916610460820152610480015290565b81810381811115611729576117296151b9565b5f5f85851115615a06575f5ffd5b83861115615a12575f5ffd5b5050820193919092039150565b80356020831015611729575f19602084900360031b1b1692915050565b634e487b7160e01b5f52601260045260245ffd5b5f82615a5e57615a5e615a3c565b500690565b5f61012082018a83528960208401528860408401528760608401526101206080840152808751808352610140850191506020890192505f5b81811015615ae457835180511515845260ff6020820151166020850152604081015160408501526060810151606085015250608083019250602084019350600181019050615a9b565b505060a084018790528551151560c08501526020860151151560e08501529150615b0b9050565b826101008301529998505050505050505050565b5f82615b2d57615b2d615a3c565b500490565b8082028115828204841417611729576117296151b9565b5f600160ff1b8201615b5d57615b5d6151b9565b505f0390565b600181811c90821680615b7757607f821691505b60208210810361427657634e487b7160e01b5f52602260045260245ffdfecc2bde3d21ba778aa5c156bb6fc47381978b0054c8a1ef73f44234164324cbe1cc2bde3d21ba778aa5c156bb6fc47381978b0054c8a1ef73f44234164324cbe2cc2bde3d21ba778aa5c156bb6fc47381978b0054c8a1ef73f44234164324cbe0a26469706673582212206192a99fdb925ffcfa2049acf47ccde7aeb0acad64b610de0dba1a212f20b1a264736f6c634300081b003360a060405234801561000f575f5ffd5b5060405161125e38038061125e83398101604081905261002e9161009c565b3330838360405161003e9061008f565b6001600160a01b03948516815293909216602084015260408301526060820152608001604051809103905ff08015801561007a573d5f5f3e3d5ffd5b506001600160a01b0316608052506100be9050565b610bfe8061066083390190565b5f5f604083850312156100ad575f5ffd5b505080516020909101519092909150565b6080516105856100db5f395f8181603d015260a301526105855ff3fe608060405234801561000f575f5ffd5b5060043610610034575f3560e01c8063bffa7f0f14610038578063c96be4cb1461007c575b5f5ffd5b61005f7f000000000000000000000000000000000000000000000000000000000000000081565b6040516001600160a01b0390911681526020015b60405180910390f35b61008f61008a3660046102af565b61009f565b6040519015158152602001610073565b5f337f00000000000000000000000000000000000000000000000000000000000000006001600160a01b0381168214610102576040516344c1f74f60e01b81526001600160a01b0392831660048201529116602482015260440160405180910390fd5b50505f826001600160a01b031663504d080b6040518163ffffffff1660e01b81526004015f60405180830381865afa158015610140573d5f5f3e3d5ffd5b505050506040513d5f823e601f3d908101601f19168201604052610167919081019061033f565b90505f5b815181101561028e575f5f838381518110610188576101886104b8565b60200260200101515f01516001600160a01b03168484815181106101ae576101ae6104b8565b6020026020010151602001516040516101c791906104cc565b5f604051808303815f865af19150503d805f8114610200576040519150601f19603f3d011682016040523d82523d5f602084013e610205565b606091505b509150915081610284577f606461c3c22ef5d2f9fa14ff2480c0ec357ce58718c1b2d6f360f603b14cb3e5848481518110610242576102426104b8565b60200260200101515f015185858151811061025f5761025f6104b8565b6020026020010151602001518360405161027b93929190610510565b60405180910390a15b505060010161016b565b5060019392505050565b6001600160a01b03811681146102ac575f5ffd5b50565b5f602082840312156102bf575f5ffd5b81356102ca81610298565b9392505050565b634e487b7160e01b5f52604160045260245ffd5b6040805190810167ffffffffffffffff81118282101715610308576103086102d1565b60405290565b604051601f8201601f1916810167ffffffffffffffff81118282101715610337576103376102d1565b604052919050565b5f6020828403121561034f575f5ffd5b815167ffffffffffffffff811115610365575f5ffd5b8201601f81018413610375575f5ffd5b805167ffffffffffffffff81111561038f5761038f6102d1565b8060051b61039f6020820161030e565b918252602081840181019290810190878411156103ba575f5ffd5b6020850192505b838310156104ad57825167ffffffffffffffff8111156103df575f5ffd5b85016040818a03601f190112156103f4575f5ffd5b6103fc6102e5565b602082015161040a81610298565b8152604082015167ffffffffffffffff811115610425575f5ffd5b60208184010192505089601f83011261043c575f5ffd5b815167ffffffffffffffff811115610456576104566102d1565b610469601f8201601f191660200161030e565b8181528b602083860101111561047d575f5ffd5b8160208501602083015e5f60208383010152806020840152505080845250506020820191506020830192506103c1565b979650505050505050565b634e487b7160e01b5f52603260045260245ffd5b5f82518060208501845e5f920191825250919050565b5f81518084528060208401602086015e5f602082860101526020601f19601f83011685010191505092915050565b6001600160a01b03841681526060602082018190525f90610533908301856104e2565b828103604084015261054581856104e2565b969550505050505056fea2646970667358221220e0b4ce160ea027fb9511ea7c47fb6694fe2bee4d04405cb4a423ed9665cd733f64736f6c634300081b0033610100604052348015610010575f5ffd5b50604051610bfe380380610bfe83398101604081905261002f916100e2565b608082905260a08190528181610046600282610127565b60805160a0519091821161007b576040516365424f5b60e11b8152600481019290925260248201526044015b60405180910390fd5b505060a05160805190808211156100ae5760405163103804ad60e11b815260048101929092526024820152604401610072565b5050506001600160a01b0394851660c0525050501660e052610146565b6001600160a01b03811681146100df575f5ffd5b50565b5f5f5f5f608085870312156100f5575f5ffd5b8451610100816100cb565b6020860151909450610111816100cb565b6040860151606090960151949790965092505050565b5f8261014157634e487b7160e01b5f52601260045260245ffd5b500490565b60805160a05160c05160e051610a556101a95f395f818160e201528181610197015261086b01525f818161027d015281816102a1015281816102c8015261058501525f8181610173015261081f01525f8181610243015261048e0152610a555ff3fe608060405234801561000f575f5ffd5b50600436106100b1575f3560e01c8063a97f36a81161006e578063a97f36a8146101ce578063b59c46fb146101d6578063c9e525df1461023e578063d11eb2b214610265578063d15db8b414610278578063de7b5d141461029f575f5ffd5b80630d61b519146100b55780635db93dfa146100dd57806362c69d721461011c578063693f917e1461016e5780636c1032af146101955780636dd7d8ea146101bb575b5f5ffd5b6100c86100c33660046108d7565b6102c5565b60405190151581526020015b60405180910390f35b6101047f000000000000000000000000000000000000000000000000000000000000000081565b6040516001600160a01b0390911681526020016100d4565b61016061012a366004610905565b6001600160a01b038084165f90815260208181526040808320868452825280832093851683526002909301905220549392505050565b6040519081526020016100d4565b6101607f000000000000000000000000000000000000000000000000000000000000000081565b7f0000000000000000000000000000000000000000000000000000000000000000610104565b6100c86101c9366004610944565b610582565b610160600581565b6102196101e4366004610966565b5f602081815292815260408082209093529081522080546001909101546001600160a01b03811690600160a01b900460ff1683565b604080519384526001600160a01b0390921660208401521515908201526060016100d4565b6101607f000000000000000000000000000000000000000000000000000000000000000081565b6101606102733660046108d7565b610819565b6101047f000000000000000000000000000000000000000000000000000000000000000081565b7f0000000000000000000000000000000000000000000000000000000000000000610104565b5f7f0000000000000000000000000000000000000000000000000000000000000000806001600160a01b0381163b61032157604051635fa9262560e01b81526001600160a01b0390911660048201526024015b60405180910390fd5b505f8190505f816001600160a01b031663d8e3784c6040518163ffffffff1660e01b8152600401602060405180830381865afa158015610363573d5f5f3e3d5ffd5b505050506040513d601f19601f820116820180604052508101906103879190610990565b90505f61039382610819565b90508086106103b55760405163117e3a7760e31b815260040160405180910390fd5b806103c16005886109a7565b1015868290916103ed5760405163c3d7aa4f60e01b815260048101929092526024820152604401610318565b50506001600160a01b0384165f90815260208181526040808320898452909152902060018101548790600160a01b900460ff16156104415760405163058240ed60e31b815260040161031891815260200190565b5060018101546001600160a01b031661046d57604051630b560ca160e11b815260040160405180910390fd5b60018101546001600160a01b03165f908152600282016020526040902054807f0000000000000000000000000000000000000000000000000000000000000000808210156104d7576040516357d5327960e11b815260048101929092526024820152604401610318565b505060018201805460ff60a01b198116600160a01b1790915560405189916001600160a01b0316907f7bfd03e44f31b1867e10c41d419cd8073b4719d321ccc5c3a3c79ac2babab3c3905f90a3600182015461053b906001600160a01b031661084a565b60018301546001600160a01b031690610573576040516323653eff60e21b81526001600160a01b039091166004820152602401610318565b50600198975050505050505050565b5f7f0000000000000000000000000000000000000000000000000000000000000000806001600160a01b0381163b6105d957604051635fa9262560e01b81526001600160a01b039091166004820152602401610318565b505f8190505f816001600160a01b031663d8e3784c6040518163ffffffff1660e01b8152600401602060405180830381865afa15801561061b573d5f5f3e3d5ffd5b505050506040513d601f19601f8201168201806040525081019061063f9190610990565b90505f61064b82610819565b6001600160a01b0385165f9081526020818152604080832084845290915290208054919250908311839061069557604051631d30a86560e11b815260040161031891815260200190565b505f846001600160a01b0316633b10244b6040518163ffffffff1660e01b8152600401602060405180830381865afa1580156106d3573d5f5f3e3d5ffd5b505050506040513d601f19601f820116820180604052508101906106f791906109c6565b905033816001600160a01b038116821461073757604051633a8db46b60e21b81526001600160a01b03928316600482015291166024820152604401610318565b50506001600160a01b0388165f90815260028301602052604081208054600192906107639084906109a7565b909155505083825560018201546001600160a01b038981169116148015906107b1575060018201546001600160a01b039081165f90815260028401602052604080822054928b168252902054115b156107d4576001820180546001600160a01b0319166001600160a01b038a161790555b604051339084906001600160a01b038b16907f75b35ca960bbb2cc550471a4098b1a96255dd657fe926e331754cd7c2e4489b3905f90a4506001979650505050505050565b5f6108447f0000000000000000000000000000000000000000000000000000000000000000836109e1565b92915050565b60405163c96be4cb60e01b81526001600160a01b0382811660048301525f917f00000000000000000000000000000000000000000000000000000000000000009091169063c96be4cb906024016020604051808303815f875af11580156108b3573d5f5f3e3d5ffd5b505050506040513d601f19601f820116820180604052508101906108449190610a00565b5f602082840312156108e7575f5ffd5b5035919050565b6001600160a01b0381168114610902575f5ffd5b50565b5f5f5f60608486031215610917575f5ffd5b8335610922816108ee565b9250602084013591506040840135610939816108ee565b809150509250925092565b5f60208284031215610954575f5ffd5b813561095f816108ee565b9392505050565b5f5f60408385031215610977575f5ffd5b8235610982816108ee565b946020939093013593505050565b5f602082840312156109a0575f5ffd5b5051919050565b8082018082111561084457634e487b7160e01b5f52601160045260245ffd5b5f602082840312156109d6575f5ffd5b815161095f816108ee565b5f826109fb57634e487b7160e01b5f52601260045260245ffd5b500490565b5f60208284031215610a10575f5ffd5b8151801515811461095f575f5ffdfea26469706673582212204838813da06d4fbfd765ccdd6e92a794393c9c4e3bbaaf6f086a05baeccf838b64736f6c634300081b003360e060405234801561000f575f5ffd5b50604051610a14380380610a1483398101604081905261002e9161006f565b6001600160a01b0380841660a052841660c05261004b81836100b4565b608052506100dd92505050565b6001600160a01b038116811461006c575f5ffd5b50565b5f5f5f5f60808587031215610082575f5ffd5b845161008d81610058565b602086015190945061009e81610058565b6040860151606090960151949790965092505050565b80820281158282048414176100d757634e487b7160e01b5f52601160045260245ffd5b92915050565b60805160a05160c0516108dd6101375f395f818161016a015281816101fb0152818161046b015261065e01525f81816101a9015281816102e001526103ab01525f818160e001528181610248015261053e01526108dd5ff3fe608060405234801561000f575f5ffd5b50600436106100b1575f3560e01c80639611c5c21161006e5780639611c5c2146101a4578063b6b55f25146101cb578063c60d588d146101de578063f8fd9795146101f1578063fc0c546a146101f9578063fc7e286d1461021f575f5ffd5b806308b4af71146100b55780630d5e5fff146100db5780631c87b6ac146101025780632c865e301461011757806352df49ec1461012a57806382bfefc814610165575b5f5ffd5b6100c86100c33660046107e4565b61023e565b6040519081526020015b60405180910390f35b6100c87f000000000000000000000000000000000000000000000000000000000000000081565b61011561011036600461080e565b6102d5565b005b61011561012536600461080e565b6103a0565b610150610138366004610836565b600160208190525f9182526040909120805491015482565b604080519283526020830191909152016100d2565b61018c7f000000000000000000000000000000000000000000000000000000000000000081565b6040516001600160a01b0390911681526020016100d2565b61018c7f000000000000000000000000000000000000000000000000000000000000000081565b6101156101d9366004610856565b61045e565b6101156101ec366004610856565b6104ef565b6101156105bf565b7f000000000000000000000000000000000000000000000000000000000000000061018c565b6100c861022d366004610836565b5f6020819052908152604090205481565b5f6102728361026d7f000000000000000000000000000000000000000000000000000000000000000042610881565b111590565b1561027e57505f6102cf565b6001600160a01b0382165f90815260208181526040808320546001928390529220015484106102cc576001600160a01b0383165f908152600160205260409020546102c99082610894565b90505b90505b92915050565b336001600160a01b037f000000000000000000000000000000000000000000000000000000000000000016811461033057604051632ac332c160e01b81526001600160a01b0390911660048201526024015b60405180910390fd5b506001600160a01b0382165f9081526020819052604081208054839290610358908490610894565b90915550506040518181526001600160a01b038316907f8c2455f4b82f1285751e0f21f0cda7612aa81cf700ab606c3e2250253ff1e400906020015b60405180910390a25050565b336001600160a01b037f00000000000000000000000000000000000000000000000000000000000000001681146103f657604051632ac332c160e01b81526001600160a01b039091166004820152602401610327565b506001600160a01b0382165f908152602081905260408120805483929061041e908490610881565b90915550506040518181526001600160a01b038316907f6567969aa8387adeedb0b23fd1b47a09157bfb8fdb2a11e8b1c03b8b0e78b48f90602001610394565b6104936001600160a01b037f0000000000000000000000000000000000000000000000000000000000000000163330846106ba565b335f90815260208190526040812080548392906104b1908490610881565b909155505060405181815233907fe1fffcc4923d04b559f4d29a8bfc6cda04eb5b0d3c460751c2402c5c5cc9109c906020015b60405180910390a250565b335f908152602081905260409020548180821015610529576040516309b8b78960e01b815260048101929092526024820152604401610327565b505060405180604001604052808281526020017f0000000000000000000000000000000000000000000000000000000000000000426105689190610881565b9052335f818152600160208181526040928390208551815594015193018390555190917f9d22371eec6fd87e081855b42b28f152e79799fa5a89bf4e30f8acf26d29ed95916104e491858252602082015260400190565b335f90815260016020818152604092839020835180850190945280548452909101549082018190524290808210156106135760405163b32ab8a760e01b815260048101929092526024820152604401610327565b5050335f908152600160208181526040808420848155909201839055835190839052908220805491929091610649908490610894565b90915550508051610686906001600160a01b037f000000000000000000000000000000000000000000000000000000000000000016903390610727565b805160405190815233907fa5b1c510c6d1fc318ad8a59c08331317c170ad7f42e0bff2ece9b32d0feb6859906020016104e4565b6040516001600160a01b0384811660248301528381166044830152606482018390526107219186918216906323b872dd906084015b604051602081830303815290604052915060e01b6020820180516001600160e01b03838183161783525050505061075d565b50505050565b6040516001600160a01b0383811660248301526044820183905261075891859182169063a9059cbb906064016106ef565b505050565b5f5f60205f8451602086015f885af18061077c576040513d5f823e3d81fd5b50505f513d915081156107935780600114156107a0565b6001600160a01b0384163b155b1561072157604051635274afe760e01b81526001600160a01b0385166004820152602401610327565b80356001600160a01b03811681146107df575f5ffd5b919050565b5f5f604083850312156107f5575f5ffd5b82359150610805602084016107c9565b90509250929050565b5f5f6040838503121561081f575f5ffd5b610828836107c9565b946020939093013593505050565b5f60208284031215610846575f5ffd5b61084f826107c9565b9392505050565b5f60208284031215610866575f5ffd5b5035919050565b634e487b7160e01b5f52601160045260245ffd5b808201808211156102cf576102cf61086d565b818103818111156102cf576102cf61086d56fea26469706673582212209c08578d48e2ad0325f8c85f7600f0e9de6f6312630e1e7913cbe82c7e0b8c2164736f6c634300081b0033610100604052610010600180610375565b5f555f600355348015610021575f5ffd5b50604051610f77380380610f7783398101604081905261004091610388565b6001600160a01b03821660805260a081905261005d8160026104a2565b60c05261006b600182610099565b60a05160c0515f8054815260026020526040902061008e92909160019190610142565b60e0525061055c9050565b5f8080526020839052604081205560015b81811161013d5761011d835f6100c16001856104b4565b81526020019081526020015f2054845f015f6001856100e091906104b4565b81526020019081526020015f2054604051602001610108929190918252602082015260400190565b60408051601f1981840301815291905261029b565b5f8281526020859052604090205580610135816104c7565b9150506100aa565b505050565b83545f908082036101625750505f82815260208490526040902054610293565b8281036101805750505f828152600185016020526040902054610293565b5f61018c6001836104b4565b90505f61019882610336565b5f81815260018a01602052604090205490915082821c825b8881101561028a57600180831614801561024f575f82815260018d01602052604090205484900361021c5760405162461bcd60e51b81526020600482015260126024820152714d697374616b65732077657265206d61646560701b604482015260640160405180910390fd5b5f82815260018d0160209081526040918290205482519182015290810185905261024890606001610108565b935061027d565b5f82815260208c815260409182902054915161027a9261010892889201918252602082015260400190565b93505b50600191821c91016101b0565b50909450505050505b949350505050565b6040805160018082528183019092525f91602082018180368337019050506002836040516102c991906104f6565b602060405180830381855afa1580156102e4573d5f5f3e3d5ffd5b5050506040513d601f19601f820116820180604052508101906103079190610501565b604051602001610318929190610518565b60405160208183030381529060405261033090610536565b92915050565b5f80825b8060011660010361035a578161034f816104c7565b92505060011c61033a565b5092915050565b634e487b7160e01b5f52601160045260245ffd5b8082018082111561033057610330610361565b5f5f60408385031215610399575f5ffd5b82516001600160a01b03811681146103af575f5ffd5b6020939093015192949293505050565b6001815b60018411156103fa578085048111156103de576103de610361565b60018416156103ec57908102905b60019390931c9280026103c3565b935093915050565b5f8261041057506001610330565b8161041c57505f610330565b8160018114610432576002811461043c57610458565b6001915050610330565b60ff84111561044d5761044d610361565b50506001821b610330565b5060208310610133831016604e8410600b841016171561047b575081810a610330565b6104875f1984846103bf565b805f190482111561049a5761049a610361565b029392505050565b5f6104ad8383610402565b9392505050565b8181038181111561033057610330610361565b5f600182016104d8576104d8610361565b5060010190565b5f81518060208401855e5f93019283525090919050565b5f6104ad82846104df565b5f60208284031215610511575f5ffd5b5051919050565b5f61052382856104df565b60ff199390931683525050601f01919050565b80516020808301519190811015610556575f198160200360031b1b821691505b50919050565b60805160a05160c05160e0516109c56105b25f395f6103ed01525f8181610240015281816102920152818161044b01526104d701525f818161042a01526104b601525f8181610101015261038c01526109c55ff3fe608060405234801561000f575f5ffd5b506004361061007a575f3560e01c80637a508022116100585780637a508022146100d557806387351813146100f45780639611c5c2146100fc5780639b24b3b01461013b575f5ffd5b8063086dc8d41461007e5780631f6d510b1461009a578063483f31ab146100c2575b5f5ffd5b61008760035481565b6040519081526020015b60405180910390f35b6100ad6100a8366004610813565b61014e565b60408051928352602083019190915201610091565b6100876100d036600461088b565b610380565b6100876100e336600461088b565b60026020525f908152604090205481565b6100875f5481565b6101237f000000000000000000000000000000000000000000000000000000000000000081565b6040516001600160a01b039091168152602001610091565b61008761014936600461088b565b6104a1565b82515f9081907f30644e72e131a029b85045b68181585d2833e84879b9709143e1f593f00000008111156101a1576040516353bb503760e11b815260040161019891815260200190565b60405180910390fd5b50837f30644e72e131a029b85045b68181585d2833e84879b9709143e1f593f00000008111156101e7576040516311d1480560e21b815260040161019891815260200190565b50827f30644e72e131a029b85045b68181585d2833e84879b9709143e1f593f000000081111561022d57604051633b379f8b60e21b815260040161019891815260200190565b505f8054815260026020526040902080547f00000000000000000000000000000000000000000000000000000000000000000361028b5760015f5f82825461027591906108b6565b90915550505f8054815260026020526040902090505b5f815f01547f000000000000000000000000000000000000000000000000000000000000000060015f546102bf91906108c9565b6102c991906108dc565b6102d391906108b6565b6040805160e0810182523360a082019081524660c08301528152602081018a905290810188905260608101879052608081018290529091505f610315826104fb565b9050610321848261057d565b5060038054905f610331836108f3565b9190505550805f547f1f0faf82fa8c7b10dd392417c6976d0ed764deb80fb07211d5928c2944ddb80d8560405161036a91815260200190565b60405180910390a3989197509095505050505050565b5f336001600160a01b037f000000000000000000000000000000000000000000000000000000000000000016146103ca5760405163e5336a6b60e01b815260040160405180910390fd5b5f5482106103eb5760405163c490199960e01b815260040160405180910390fd5b7f00000000000000000000000000000000000000000000000000000000000000006001831115610472575f83815260026020526040902061046f9060017f00000000000000000000000000000000000000000000000000000000000000007f00000000000000000000000000000000000000000000000000000000000000006105fe565b90505b5f5461047f8460016108b6565b0361049b5760015f5f82825461049591906108b6565b90915550505b92915050565b5f81815260026020526040812061049b9060017f00000000000000000000000000000000000000000000000000000000000000007f00000000000000000000000000000000000000000000000000000000000000006105fe565b5f61049b825f0151836020015184604001518560600151866080015160405160200161056995949392919085516001600160a01b03168152602095860151868201528451604082015293909401516060840152608083019190915260a082015260c081019190915260e00190565b604051602081830303815290604052610753565b81545f908161058b826107e8565b9050835f5b828110156105ce575f818152600188016020908152604091829020548251918201529081018390526105c490606001610569565b9150600101610590565b505f828152600187016020526040812082905586549087906105ef836108f3565b90915550929695505050505050565b83545f9080820361061e5750505f8281526020849052604090205461074b565b82810361063c5750505f82815260018501602052604090205461074b565b5f6106486001836108c9565b90505f610654826107e8565b5f81815260018a01602052604090205490915082821c825b88811015610742576001808316148015610707575f82815260018d0160205260409020548490036106d45760405162461bcd60e51b81526020600482015260126024820152714d697374616b65732077657265206d61646560701b6044820152606401610198565b5f82815260018d0160209081526040918290205482519182015290810185905261070090606001610569565b9350610735565b5f82815260208c81526040918290205491516107329261056992889201918252602082015260400190565b93505b50600191821c910161066c565b50909450505050505b949350505050565b6040805160018082528183019092525f91602082018180368337019050506002836040516107819190610922565b602060405180830381855afa15801561079c573d5f5f3e3d5ffd5b5050506040513d601f19601f820116820180604052508101906107bf9190610934565b6040516020016107d092919061094b565b60405160208183030381529060405261049b90610969565b5f80825b8060011660010361080c5781610801816108f3565b92505060011c6107ec565b5092915050565b5f5f5f8385036080811215610826575f5ffd5b6040811215610833575f5ffd5b506040516040810181811067ffffffffffffffff8211171561086357634e487b7160e01b5f52604160045260245ffd5b6040908152853582526020808701359083015290969085013595506060909401359392505050565b5f6020828403121561089b575f5ffd5b5035919050565b634e487b7160e01b5f52601160045260245ffd5b8082018082111561049b5761049b6108a2565b8181038181111561049b5761049b6108a2565b808202811582820484141761049b5761049b6108a2565b5f60018201610904576109046108a2565b5060010190565b5f81518060208401855e5f93019283525090919050565b5f61092d828461090b565b9392505050565b5f60208284031215610944575f5ffd5b5051919050565b5f610956828561090b565b60ff199390931683525050601f01919050565b80516020808301519190811015610989575f198160200360031b1b821691505b5091905056fea26469706673582212200b74a09c624bef4d3dcfcbeab253cdf2cfebf78a57220e8d08ccfd5988cbff7264736f6c634300081b003360a060405234801561000f575f5ffd5b50604051610a36380380610a3683398101604081905261002e9161003f565b6001600160a01b031660805261006c565b5f6020828403121561004f575f5ffd5b81516001600160a01b0381168114610065575f5ffd5b9392505050565b60805161099e6100985f395f818160f201528181610130015281816101e50152610276015261099e5ff3fe608060405234801561000f575f5ffd5b5060043610610055575f3560e01c80632249f653146100595780633d96c2c9146100865780637fb349671461009b57806384f15db2146100ae5780639611c5c2146100ed575b5f5ffd5b61006c6100673660046106b1565b61012c565b604080519283526020830191909152015b60405180910390f35b6100996100943660046106c8565b6101da565b005b6100996100a93660046106f1565b610274565b6100dd6100bc36600461078a565b5f918252602082815260408084209284526002909201905290205460ff1690565b604051901515815260200161007d565b6101147f000000000000000000000000000000000000000000000000000000000000000081565b6040516001600160a01b03909116815260200161007d565b5f5f7f00000000000000000000000000000000000000000000000000000000000000006001600160a01b031663b67d057b6040518163ffffffff1660e01b8152600401602060405180830381865afa15801561018a573d5f5f3e3d5ffd5b505050506040513d601f19601f820116820180604052508101906101ae91906107aa565b8311156101bf57505f928392509050565b50505f90815260208190526040902080546001909101549091565b336001600160a01b037f000000000000000000000000000000000000000000000000000000000000000016146102235760405163164a486160e11b815260040160405180910390fd5b5f83815260208181526040918290208481556001018390559051828152839185917fd3fab397eb3e47fb43090430543ca9623e09aeddf27bfde1bf7bdca871ee9ebc910160405180910390a3505050565b7f00000000000000000000000000000000000000000000000000000000000000006001600160a01b031663b67d057b6040518163ffffffff1660e01b8152600401602060405180830381865afa1580156102d0573d5f5f3e3d5ffd5b505050506040513d601f19601f820116820180604052508101906102f491906107aa565b841115849061032257604051630e194a6d60e01b815260040161031991815260200190565b60405180910390fd5b5061033360608601604087016107dc565b6001600160a01b0316331461034e60608701604088016107dc565b339091610381576040516357aad58160e01b81526001600160a01b03928316600482015291166024820152604401610319565b5050466060860135146103a7576040516315dfb1f160e21b815260040160405180910390fd5b5f848152602081905260409020805485816103d857604051635228479160e11b815260040161031991815260200190565b505f8581526002830160205260409020548690869060ff161561041757604051633f5c70b560e21b815260048101929092526024820152604401610319565b5050600182015480848082111561044a57604051631206f36760e21b815260048101929092526024820152604401610319565b505f9050610465610460368b90038b018b610860565b6104d9565b90506104748686838a8761053b565b5f87815260028501602052604090819020805460ff1916600117905551819084908a907f34bc3301c4660a5642d2246e175e7fea498c94258d39dcaa555a52464dbb083d906104c6908c815260200190565b60405180910390a4505050505050505050565b80516020808301516040808501518151855181860152948401519185019190915281516001600160a01b03166060850152910151608083015260a08201525f906105359060c0015b60405160208183030381529060405261061c565b92915050565b82825f5b868110156105d4576001808316148061058e57610589848a8a85818110610568576105686108ee565b90506020020135604051602001610521929190918252602082015260400190565b6105c5565b6105c58989848181106105a3576105a36108ee565b9050602002013585604051602001610521929190918252602082015260400190565b935050600191821c910161053f565b508282868682841461060f57604051635f216bf160e01b81526004810194909452602484019290925260448301526064820152608401610319565b5050505050505050505050565b6040805160018082528183019092525f916020820181803683370190505060028360405161064a9190610919565b602060405180830381855afa158015610665573d5f5f3e3d5ffd5b5050506040513d601f19601f8201168201806040525081019061068891906107aa565b604051602001610699929190610924565b60405160208183030381529060405261053590610942565b5f602082840312156106c1575f5ffd5b5035919050565b5f5f5f606084860312156106da575f5ffd5b505081359360208301359350604090920135919050565b5f5f5f5f5f858703610100811215610707575f5ffd5b60a0811215610714575f5ffd5b5085945060a0850135935060c0850135925060e085013567ffffffffffffffff81111561073f575f5ffd5b8601601f8101881361074f575f5ffd5b803567ffffffffffffffff811115610765575f5ffd5b8860208260051b8401011115610779575f5ffd5b959894975092955050506020019190565b5f5f6040838503121561079b575f5ffd5b50508035926020909101359150565b5f602082840312156107ba575f5ffd5b5051919050565b80356001600160a01b03811681146107d7575f5ffd5b919050565b5f602082840312156107ec575f5ffd5b6107f5826107c1565b9392505050565b6040516060810167ffffffffffffffff8111828210171561082b57634e487b7160e01b5f52604160045260245ffd5b60405290565b6040805190810167ffffffffffffffff8111828210171561082b57634e487b7160e01b5f52604160045260245ffd5b5f81830360a081128015610872575f5ffd5b5061087b6107fc565b6040821215610888575f5ffd5b610890610831565b843581526020808601359082015281526040603f19830112156108b1575f5ffd5b6108b9610831565b91506108c7604085016107c1565b82526060840135602080840191909152810191909152608090920135604083015250919050565b634e487b7160e01b5f52603260045260245ffd5b5f81518060208401855e5f93019283525090919050565b5f6107f58284610902565b5f61092f8285610902565b60ff199390931683525050601f01919050565b80516020808301519190811015610962575f198160200360031b1b821691505b5091905056fea264697066735822122090809c26d1f2bd1f0cd78ddbebcd175f4c3235554fb2b2cb4547bf80bfb8c03264736f6c634300081b00336080604052348015600e575f5ffd5b506101578061001c5f395ff3fe608060405234801561000f575f5ffd5b5060043610610029575f3560e01c8063ea50d0e41461002d575b5f5ffd5b61004561003b366004610059565b6001949350505050565b604051901515815260200160405180910390f35b5f5f5f5f6040858703121561006c575f5ffd5b843567ffffffffffffffff811115610082575f5ffd5b8501601f81018713610092575f5ffd5b803567ffffffffffffffff8111156100a8575f5ffd5b8760208284010111156100b9575f5ffd5b60209182019550935085013567ffffffffffffffff8111156100d9575f5ffd5b8501601f810187136100e9575f5ffd5b803567ffffffffffffffff8111156100ff575f5ffd5b8760208260051b8401011115610113575f5ffd5b94979396506020019450505056fea2646970667358221220b347706a3dc7f76b5cbd0f02b652482a8592c3334d7013c40fe86559709bd69964736f6c634300081b0033",
        "linkReferences": {
            "src/core/libraries/RollupLibs/ExtRollupLib.sol": {
                "ExtRollupLib": [
                    {
                        "start": 1773,
                        "length": 20
                    },
                    {
                        "start": 7216,
                        "length": 20
                    },
                    {
                        "start": 7339,
                        "length": 20
                    },
                    {
                        "start": 9296,
                        "length": 20
                    },
                    {
                        "start": 9925,
                        "length": 20
                    },
                    {
                        "start": 10671,
                        "length": 20
                    },
                    {
                        "start": 11948,
                        "length": 20
                    },
                    {
                        "start": 13096,
                        "length": 20
                    },
                    {
                        "start": 13285,
                        "length": 20
                    },
                    {
                        "start": 14467,
                        "length": 20
                    },
                    {
                        "start": 16817,
                        "length": 20
                    }
                ]
            },
            "src/core/libraries/ValidatorSelectionLib/ValidatorSelectionLib.sol": {
                "ValidatorSelectionLib": [
                    {
                        "start": 8917,
                        "length": 20
                    },
                    {
                        "start": 12514,
                        "length": 20
                    },
                    {
                        "start": 13836,
                        "length": 20
                    },
                    {
                        "start": 15492,
                        "length": 20
                    },
                    {
                        "start": 17646,
                        "length": 20
                    }
                ]
            },
            "src/core/libraries/staking/StakingLib.sol": {
                "StakingLib": [
                    {
                        "start": 619,
                        "length": 20
                    },
                    {
                        "start": 6800,
                        "length": 20
                    },
                    {
                        "start": 6916,
                        "length": 20
                    },
                    {
                        "start": 8945,
                        "length": 20
                    },
                    {
                        "start": 10103,
                        "length": 20
                    },
                    {
                        "start": 10354,
                        "length": 20
                    },
                    {
                        "start": 10437,
                        "length": 20
                    },
                    {
                        "start": 11310,
                        "length": 20
                    },
                    {
                        "start": 11563,
                        "length": 20
                    },
                    {
                        "start": 12397,
                        "length": 20
                    },
                    {
                        "start": 12542,
                        "length": 20
                    },
                    {
                        "start": 12805,
                        "length": 20
                    },
                    {
                        "start": 12920,
                        "length": 20
                    },
                    {
                        "start": 13423,
                        "length": 20
                    },
                    {
                        "start": 13572,
                        "length": 20
                    },
                    {
                        "start": 13864,
                        "length": 20
                    },
                    {
                        "start": 14172,
                        "length": 20
                    },
                    {
                        "start": 14797,
                        "length": 20
                    },
                    {
                        "start": 15172,
                        "length": 20
                    },
                    {
                        "start": 15256,
                        "length": 20
                    },
                    {
                        "start": 15518,
                        "length": 20
                    },
                    {
                        "start": 15853,
                        "length": 20
                    },
                    {
                        "start": 16210,
                        "length": 20
                    },
                    {
                        "start": 17674,
                        "length": 20
                    }
                ]
            }
        }
    },
    "methodIdentifiers": {
        "ASSET()": "4800d97f",
        "CLAIM_DURATION_IN_L2_SLOTS()": "3ceac569",
        "CUAUHXICALLI()": "c001ab82",
        "FEE_JUICE_PORTAL()": "1811f40b",
        "INBOX()": "b7010697",
        "IS_FOUNDRY_TEST()": "f1b98cea",
        "L1_BLOCK_AT_GENESIS()": "79ed8ead",
        "LAG()": "f7a0572b",
        "LIFETIME()": "d3c576d8",
        "OUTBOX()": "1b142ea7",
        "PROOF_COMMITMENT_ESCROW()": "b9802405",
        "PROOF_COMMITMENT_MIN_BOND_AMOUNT_IN_TST()": "e7142f7c",
        "REWARD_DISTRIBUTOR()": "8de728e4",
        "TARGET_COMMITTEE_SIZE()": "a575fcdc",
        "VERSION()": "ffa1ad74",
        "VM_ADDRESS()": "a9a1c6f4",
        "archive()": "02a21460",
        "archiveAt(uint256)": "3777e863",
        "canProposeAtTime(uint256,bytes32)": "33f9acb4",
        "canPrune()": "694223ac",
        "canPruneAtTime(uint256)": "dc1bb8f4",
        "cheat__InitialiseValidatorSet((address,address,address,uint256)[])": "f85d4eaa",
        "checkBlob()": "7468582f",
        "claimEpochProofRight(((uint256,uint256,uint256,address,uint32),(bool,uint8,bytes32,bytes32)))": "53a16024",
        "deposit(address,address,address,uint256)": "0284c3f5",
        "eip712Domain()": "84b0196e",
        "finaliseWithdraw(address)": "4a177008",
        "getActiveAttesterCount()": "90a3b386",
        "getAttesterAtIndex(uint256)": "a7f8e646",
        "getAttesters()": "4ed7e435",
        "getBlobPublicInputsHash(uint256)": "8f2a2b26",
        "getBlock(uint256)": "04c07569",
        "getClaimableEpoch()": "b8f31590",
        "getCommitteeAt(uint256)": "1cfe2878",
        "getCurrentEpoch()": "b97dd9e2",
        "getCurrentEpochCommittee()": "966ab4ee",
        "getCurrentProposer()": "3b10244b",
        "getCurrentSampleSeed()": "ede57c34",
        "getCurrentSlot()": "d8e3784c",
        "getEpochAt(uint256)": "c9d1e012",
        "getEpochAtSlot(uint256)": "74af185e",
        "getEpochCommittee(uint256)": "69457a6f",
        "getEpochDuration()": "5d3ea8f1",
        "getEpochForBlock(uint256)": "80edb5bd",
        "getEpochProofPublicInputs(uint256,bytes32[7],bytes32[],bytes,bytes)": "9fa50480",
        "getEpochToProve()": "bece308a",
        "getExit(address)": "5dc0ff94",
        "getExitDelay()": "386f56fc",
        "getFeeAssetPrice()": "c3778343",
        "getGenesisTime()": "723d8e96",
        "getInfo(address)": "ffdd5cf1",
        "getL1FeesAt(uint256)": "5f82401f",
        "getManaBaseFeeAt(uint256,bool)": "754eddb7",
        "getManaBaseFeeComponentsAt(uint256,bool)": "70192e56",
        "getMinimumStake()": "d9bbd278",
        "getOperatorAtIndex(uint256)": "ddf8d651",
        "getPendingBlockNumber()": "48b9e57b",
        "getProofClaim()": "35f38920",
        "getProposerAt(uint256)": "c27f08b5",
        "getProposerAtIndex(uint256)": "99d70604",
        "getProposerForAttester(address)": "61de7ac6",
        "getProvenBlockNumber()": "b67d057b",
        "getSampleSeedAt(uint256)": "7afeed28",
        "getSlasher()": "d0c80f13",
        "getSlotAt(uint256)": "b9d09163",
        "getSlotDuration()": "c4014c12",
        "getStakingAsset()": "a011f6a9",
        "getTimestampForSlot(uint256)": "d03b2bae",
        "getTips()": "88e4a073",
        "initiateWithdraw(address,address)": "ee3b8dc2",
        "owner()": "8da5cb5b",
        "propose((bytes32,bytes32,(int256,int256),bytes,bytes32[]),(bool,uint8,bytes32,bytes32)[],bytes,bytes)": "164552d8",
        "proposeAndClaim((bytes32,bytes32,(int256,int256),bytes,bytes32[]),(bool,uint8,bytes32,bytes32)[],bytes,bytes,((uint256,uint256,uint256,address,uint32),(bool,uint8,bytes32,bytes32)))": "63b03d33",
        "prune()": "9f2b3154",
        "quoteToDigest((uint256,uint256,uint256,address,uint32))": "b85e881d",
        "renounceOwnership()": "715018a6",
        "setAssumeProvenThroughBlockNumber(uint256)": "a0e6fc87",
        "setEpochVerifier(address)": "725e494e",
        "setProtocolContractTreeRoot(bytes32)": "68bdcbc5",
        "setVkTreeRoot(bytes32)": "5aa51600",
        "setupEpoch()": "e3380b79",
        "slash(address,uint256)": "02fb4d85",
        "status(uint256)": "42d21ef7",
        "submitEpochRootProof((uint256,bytes32[7],bytes32[],bytes,bytes,bytes))": "d0f1be49",
        "transferOwnership(address)": "f2fde38b",
        "updateL1GasFeeOracle()": "508ac49b",
        "validateBlobs(bytes)": "9e0fedd8",
        "validateEpochProofRightClaimAtTime(uint256,((uint256,uint256,uint256,address,uint32),(bool,uint8,bytes32,bytes32)))": "2716c737",
        "validateHeader(bytes,(bool,uint8,bytes32,bytes32)[],bytes32,uint256,bytes32,(bool,bool))": "36185aa1"
    },
    "storageLayout": {
        "storage": [
            {
                "astId": 6828,
                "contract": "src/core/Rollup.sol:Rollup",
                "label": "_nameFallback",
                "offset": 0,
                "slot": "0",
                "type": "t_string_storage"
            },
            {
                "astId": 6830,
                "contract": "src/core/Rollup.sol:Rollup",
                "label": "_versionFallback",
                "offset": 0,
                "slot": "1",
                "type": "t_string_storage"
            },
            {
                "astId": 4579,
                "contract": "src/core/Rollup.sol:Rollup",
                "label": "_owner",
                "offset": 0,
                "slot": "2",
                "type": "t_address"
            },
            {
                "astId": 13709,
                "contract": "src/core/Rollup.sol:Rollup",
                "label": "validatorSelectionStore",
                "offset": 0,
                "slot": "3",
                "type": "t_struct(ValidatorSelectionStorage)15395_storage"
            },
            {
                "astId": 11623,
                "contract": "src/core/Rollup.sol:Rollup",
                "label": "checkBlob",
                "offset": 0,
                "slot": "5",
                "type": "t_bool"
            },
            {
                "astId": 11650,
                "contract": "src/core/Rollup.sol:Rollup",
                "label": "rollupStore",
                "offset": 0,
                "slot": "6",
                "type": "t_struct(RollupStore)14809_storage"
            },
            {
                "astId": 11652,
                "contract": "src/core/Rollup.sol:Rollup",
                "label": "assumeProvenThroughBlockNumber",
                "offset": 0,
                "slot": "23",
                "type": "t_uint256"
            }
        ],
        "types": {
            "t_address": {
                "encoding": "inplace",
                "label": "address",
                "numberOfBytes": "20"
            },
            "t_array(t_address)dyn_storage": {
                "encoding": "dynamic_array",
                "label": "address[]",
                "numberOfBytes": "32",
                "base": "t_address"
            },
            "t_bool": {
                "encoding": "inplace",
                "label": "bool",
                "numberOfBytes": "1"
            },
            "t_bytes32": {
                "encoding": "inplace",
                "label": "bytes32",
                "numberOfBytes": "32"
            },
            "t_contract(IVerifier)15532": {
                "encoding": "inplace",
                "label": "contract IVerifier",
                "numberOfBytes": "20"
            },
            "t_mapping(t_uint256,t_bytes32)": {
                "encoding": "mapping",
                "key": "t_uint256",
                "label": "mapping(uint256 => bytes32)",
                "numberOfBytes": "32",
                "value": "t_bytes32"
            },
            "t_mapping(t_uint256,t_struct(BlockLog)14768_storage)": {
                "encoding": "mapping",
                "key": "t_uint256",
                "label": "mapping(uint256 => struct BlockLog)",
                "numberOfBytes": "32",
                "value": "t_struct(BlockLog)14768_storage"
            },
            "t_mapping(t_userDefinedValueType(Epoch)20329,t_struct(EpochData)15386_storage)": {
                "encoding": "mapping",
                "key": "t_userDefinedValueType(Epoch)20329",
                "label": "mapping(Epoch => struct EpochData)",
                "numberOfBytes": "32",
                "value": "t_struct(EpochData)15386_storage"
            },
            "t_string_storage": {
                "encoding": "bytes",
                "label": "string",
                "numberOfBytes": "32"
            },
            "t_struct(BlockLog)14768_storage": {
                "encoding": "inplace",
                "label": "struct BlockLog",
                "numberOfBytes": "256",
                "members": [
                    {
                        "astId": 14760,
                        "contract": "src/core/Rollup.sol:Rollup",
                        "label": "feeHeader",
                        "offset": 0,
                        "slot": "0",
                        "type": "t_struct(FeeHeader)18601_storage"
                    },
                    {
                        "astId": 14762,
                        "contract": "src/core/Rollup.sol:Rollup",
                        "label": "archive",
                        "offset": 0,
                        "slot": "5",
                        "type": "t_bytes32"
                    },
                    {
                        "astId": 14764,
                        "contract": "src/core/Rollup.sol:Rollup",
                        "label": "blockHash",
                        "offset": 0,
                        "slot": "6",
                        "type": "t_bytes32"
                    },
                    {
                        "astId": 14767,
                        "contract": "src/core/Rollup.sol:Rollup",
                        "label": "slotNumber",
                        "offset": 0,
                        "slot": "7",
                        "type": "t_userDefinedValueType(Slot)20327"
                    }
                ]
            },
            "t_struct(ChainTips)14773_storage": {
                "encoding": "inplace",
                "label": "struct ChainTips",
                "numberOfBytes": "64",
                "members": [
                    {
                        "astId": 14770,
                        "contract": "src/core/Rollup.sol:Rollup",
                        "label": "pendingBlockNumber",
                        "offset": 0,
                        "slot": "0",
                        "type": "t_uint256"
                    },
                    {
                        "astId": 14772,
                        "contract": "src/core/Rollup.sol:Rollup",
                        "label": "provenBlockNumber",
                        "offset": 0,
                        "slot": "1",
                        "type": "t_uint256"
                    }
                ]
            },
            "t_struct(EpochData)15386_storage": {
                "encoding": "inplace",
                "label": "struct EpochData",
                "numberOfBytes": "96",
                "members": [
                    {
                        "astId": 15381,
                        "contract": "src/core/Rollup.sol:Rollup",
                        "label": "committee",
                        "offset": 0,
                        "slot": "0",
                        "type": "t_array(t_address)dyn_storage"
                    },
                    {
                        "astId": 15383,
                        "contract": "src/core/Rollup.sol:Rollup",
                        "label": "sampleSeed",
                        "offset": 0,
                        "slot": "1",
                        "type": "t_uint256"
                    },
                    {
                        "astId": 15385,
                        "contract": "src/core/Rollup.sol:Rollup",
                        "label": "nextSeed",
                        "offset": 0,
                        "slot": "2",
                        "type": "t_uint256"
                    }
                ]
            },
            "t_struct(EpochProofClaim)16543_storage": {
                "encoding": "inplace",
                "label": "struct DataStructures.EpochProofClaim",
                "numberOfBytes": "160",
                "members": [
                    {
                        "astId": 16534,
                        "contract": "src/core/Rollup.sol:Rollup",
                        "label": "epochToProve",
                        "offset": 0,
                        "slot": "0",
                        "type": "t_userDefinedValueType(Epoch)20329"
                    },
                    {
                        "astId": 16536,
                        "contract": "src/core/Rollup.sol:Rollup",
                        "label": "basisPointFee",
                        "offset": 0,
                        "slot": "1",
                        "type": "t_uint256"
                    },
                    {
                        "astId": 16538,
                        "contract": "src/core/Rollup.sol:Rollup",
                        "label": "bondAmount",
                        "offset": 0,
                        "slot": "2",
                        "type": "t_uint256"
                    },
                    {
                        "astId": 16540,
                        "contract": "src/core/Rollup.sol:Rollup",
                        "label": "bondProvider",
                        "offset": 0,
                        "slot": "3",
                        "type": "t_address"
                    },
                    {
                        "astId": 16542,
                        "contract": "src/core/Rollup.sol:Rollup",
                        "label": "proposerClaimant",
                        "offset": 0,
                        "slot": "4",
                        "type": "t_address"
                    }
                ]
            },
            "t_struct(FeeHeader)18601_storage": {
                "encoding": "inplace",
                "label": "struct FeeHeader",
                "numberOfBytes": "160",
                "members": [
                    {
                        "astId": 18592,
                        "contract": "src/core/Rollup.sol:Rollup",
                        "label": "excessMana",
                        "offset": 0,
                        "slot": "0",
                        "type": "t_uint256"
                    },
                    {
                        "astId": 18594,
                        "contract": "src/core/Rollup.sol:Rollup",
                        "label": "feeAssetPriceNumerator",
                        "offset": 0,
                        "slot": "1",
                        "type": "t_uint256"
                    },
                    {
                        "astId": 18596,
                        "contract": "src/core/Rollup.sol:Rollup",
                        "label": "manaUsed",
                        "offset": 0,
                        "slot": "2",
                        "type": "t_uint256"
                    },
                    {
                        "astId": 18598,
                        "contract": "src/core/Rollup.sol:Rollup",
                        "label": "provingCostPerManaNumerator",
                        "offset": 0,
                        "slot": "3",
                        "type": "t_uint256"
                    },
                    {
                        "astId": 18600,
                        "contract": "src/core/Rollup.sol:Rollup",
                        "label": "congestionCost",
                        "offset": 0,
                        "slot": "4",
                        "type": "t_uint256"
                    }
                ]
            },
            "t_struct(L1FeeData)18606_storage": {
                "encoding": "inplace",
                "label": "struct L1FeeData",
                "numberOfBytes": "64",
                "members": [
                    {
                        "astId": 18603,
                        "contract": "src/core/Rollup.sol:Rollup",
                        "label": "baseFee",
                        "offset": 0,
                        "slot": "0",
                        "type": "t_uint256"
                    },
                    {
                        "astId": 18605,
                        "contract": "src/core/Rollup.sol:Rollup",
                        "label": "blobFee",
                        "offset": 0,
                        "slot": "1",
                        "type": "t_uint256"
                    }
                ]
            },
            "t_struct(L1GasOracleValues)14783_storage": {
                "encoding": "inplace",
                "label": "struct L1GasOracleValues",
                "numberOfBytes": "160",
                "members": [
                    {
                        "astId": 14776,
                        "contract": "src/core/Rollup.sol:Rollup",
                        "label": "pre",
                        "offset": 0,
                        "slot": "0",
                        "type": "t_struct(L1FeeData)18606_storage"
                    },
                    {
                        "astId": 14779,
                        "contract": "src/core/Rollup.sol:Rollup",
                        "label": "post",
                        "offset": 0,
                        "slot": "2",
                        "type": "t_struct(L1FeeData)18606_storage"
                    },
                    {
                        "astId": 14782,
                        "contract": "src/core/Rollup.sol:Rollup",
                        "label": "slotOfChange",
                        "offset": 0,
                        "slot": "4",
                        "type": "t_userDefinedValueType(Slot)20327"
                    }
                ]
            },
            "t_struct(RollupStore)14809_storage": {
                "encoding": "inplace",
                "label": "struct RollupStore",
                "numberOfBytes": "544",
                "members": [
                    {
                        "astId": 14788,
                        "contract": "src/core/Rollup.sol:Rollup",
                        "label": "blocks",
                        "offset": 0,
                        "slot": "0",
                        "type": "t_mapping(t_uint256,t_struct(BlockLog)14768_storage)"
                    },
                    {
                        "astId": 14792,
                        "contract": "src/core/Rollup.sol:Rollup",
                        "label": "blobPublicInputsHashes",
                        "offset": 0,
                        "slot": "1",
                        "type": "t_mapping(t_uint256,t_bytes32)"
                    },
                    {
                        "astId": 14795,
                        "contract": "src/core/Rollup.sol:Rollup",
                        "label": "tips",
                        "offset": 0,
                        "slot": "2",
                        "type": "t_struct(ChainTips)14773_storage"
                    },
                    {
                        "astId": 14797,
                        "contract": "src/core/Rollup.sol:Rollup",
                        "label": "vkTreeRoot",
                        "offset": 0,
                        "slot": "4",
                        "type": "t_bytes32"
                    },
                    {
                        "astId": 14799,
                        "contract": "src/core/Rollup.sol:Rollup",
                        "label": "protocolContractTreeRoot",
                        "offset": 0,
                        "slot": "5",
                        "type": "t_bytes32"
                    },
                    {
                        "astId": 14802,
                        "contract": "src/core/Rollup.sol:Rollup",
                        "label": "l1GasOracleValues",
                        "offset": 0,
                        "slot": "6",
                        "type": "t_struct(L1GasOracleValues)14783_storage"
                    },
                    {
                        "astId": 14805,
                        "contract": "src/core/Rollup.sol:Rollup",
                        "label": "proofClaim",
                        "offset": 0,
                        "slot": "11",
                        "type": "t_struct(EpochProofClaim)16543_storage"
                    },
                    {
                        "astId": 14808,
                        "contract": "src/core/Rollup.sol:Rollup",
                        "label": "epochProofVerifier",
                        "offset": 0,
                        "slot": "16",
                        "type": "t_contract(IVerifier)15532"
                    }
                ]
            },
            "t_struct(ValidatorSelectionStorage)15395_storage": {
                "encoding": "inplace",
                "label": "struct ValidatorSelectionStorage",
                "numberOfBytes": "64",
                "members": [
                    {
                        "astId": 15392,
                        "contract": "src/core/Rollup.sol:Rollup",
                        "label": "epochs",
                        "offset": 0,
                        "slot": "0",
                        "type": "t_mapping(t_userDefinedValueType(Epoch)20329,t_struct(EpochData)15386_storage)"
                    },
                    {
                        "astId": 15394,
                        "contract": "src/core/Rollup.sol:Rollup",
                        "label": "lastSeed",
                        "offset": 0,
                        "slot": "1",
                        "type": "t_uint256"
                    }
                ]
            },
            "t_uint256": {
                "encoding": "inplace",
                "label": "uint256",
                "numberOfBytes": "32"
            },
            "t_userDefinedValueType(Epoch)20329": {
                "encoding": "inplace",
                "label": "Epoch",
                "numberOfBytes": "32"
            },
            "t_userDefinedValueType(Slot)20327": {
                "encoding": "inplace",
                "label": "Slot",
                "numberOfBytes": "32"
            }
        }
    },
    "id": 22
}